:02000000642B6F
:0C00060007308312FD00FD0B06280800E7
:1000120001308312F100F20172084B02031D132812
:1000220071084A02031C2A280230FC004B30FD00F2
:10003200FD0B1928FC0B1928640072084B06031DDE
:1000420024284A08710603192A28F10A0319F20A18
:040052000D2808006D
:10005600831203132230FC00F801F901FA01FB01B7
:10006600FC03031961280310FB0CFA0CF90CF80CBD
:10007600F30CF20CF10CF00C031C3328FC030319EF
:1000860053287408F80775080318750FF9077608DA
:100096000318760FFA0777080318770FFB07372838
:1000A6007408F80775080318750FF907760803181A
:0E00B600760FFA0777080318770FFB0708008C
:1000C400C33083129F05F0309F05BF309F05F03089
:1000D40083169F0483129F174A08F000F00D7010D6
:1000E400F00D701070089F041F1403209F149F1CB0
:1000F4007D28000079281F101E08F100F0018316E6
:100104001E0870048312CB007108CC000030CC04AC
:0A0114004B08F0004C08F100080051
:10011E0001308312B3008516FA30CA00CB010920D4
:10012E008512FA30CA00CB0109203308033A0319AD
:08013E00A228B30A9228080070
:100146008312C801C9010130C7000130CA0062200C
:100156007008C80771080318013EC9070230FC0081
:100166004B30FD00FD0BB528FC0BB5284708403A7F
:100176000319BF28C70AA8280630F2004808F0006D
:100186004908F10072080319CD28F10CF00CF1139F
:10019600FF3EC6280030F200F3002E08F4002F08B8
:1001A600F5003008F6003108F7002B200A30F4007D
:1001B6007008AA007108AB007208AC007308AD00A5
:1001C60074080319ED28AD0CAC0CAB0CAA0CAD13DE
:0601D600FF3EE4280800D2
:1001DC0083120313FB01FA01F901F801A001730D5D
:1001EC00F80D7408F8027508031C750FF9027608EF
:1001FC00031C760FFA027708031C770FFB02000131
:10020C00031C0130A002F30D0730FC00730DF80D38
:10021C00F90DFA0DFB0DA00D7408731C2729F802BB
:10022C007508031C750FF9027608031C760FFA0289
:10023C007708031C770FFB020001031C0130A0029E
:10024C003829F80775080318750FF907760803188D
:10025C00760FFA0777080318770FFB0700010318CE
:10026C000130A007F30DFC0B0C29720DF80DF90DE4
:10027C00FA0DFB0DA00D7408731C5629F8027508B5
:10028C00031C750FF9027608031C760FFA02770827
:10029C00031C770FFB020001031C0130A00267292D
:1002AC00F80775080318750FF90776080318760F09
:1002BC00FA0777080318770FFB07000103180130C2
:1002CC00A007F20D0730FC00720DF80DF90DFA0DB8
:1002DC00FB0DA00D7408721C8529F8027508031C0F
:1002EC00750FF9027608031C760FFA027708031CC7
:1002FC00770FFB020001031C0130A0029629F807BE
:10030C0075080318750FF90776080318760FFA07A6
:10031C0077080318770FFB07000103180130A007BB
:10032C00F20DFC0B6A29710DF80DF90DFA0DFB0D90
:10033C00A00D7408721CB429F8027508031C750F03
:10034C00F9027608031C760FFA027708031C770F64
:10035C00FB020001031C0130A002C529F807750837
:10036C000318750FF90776080318760FFA07770844
:10037C000318770FFB07000103180130A007F10DDC
:10038C000730FC00710DF80DF90DFA0DFB0DA00DE9
:10039C007408711CE329F8027508031C750FF90227
:1003AC007608031C760FFA027708031C770FFB0202
:1003BC000001031C0130A002F429F807750803188A
:1003CC00750FF90776080318760FFA0777080318E4
:1003DC00770FFB07000103180130A007F10DFC0B90
:1003EC00C829700DF80DF90DFA0DFB0DA00D740850
:1003FC00711C122AF8027508031C750FF902760895
:10040C00031C760FFA027708031C770FFB0200011E
:10041C00031C0130A002232AF80775080318750F76
:10042C00F90776080318760FFA0777080318770F81
:10043C00FB07000103180130A007F00D0730FC008A
:10044C00700DF80DF90DFA0DFB0DA00D7408701C54
:10045C00412AF8027508031C750FF9027608031C73
:10046C00760FFA027708031C770FFB020001031CBE
:10047C000130A002522AF80775080318750FF90706
:10048C0076080318760FFA0777080318770FFB071F
:10049C00000103180130A007F00DFC0B262A701880
:1004AC00652A7408F80775080318750FF90776089C
:1004BC000318760FFA0777080318770FFB07080065
:1004CC0083124508003A031D772A85164130FC003B
:1004DC00EE30FD00FD0B702AFC0B702A000085121B
:1004EC00A22A0130C60046084502031CA22A851622
:1004FC000230FB004530FC00A930FD00FD0B842AC6
:10050C00FC0B842AFB0B842A0000000085120230AD
:10051C00FB004530FC00A930FD00FD0B932AFC0BC1
:10052C00932AFB0B932A0000000064004608450642
:10053C000319A22AC60A792AE830CA000330CB0074
:04054C00092008007A
:10055000673083168F00073083129900123083169C
:100560009F000B3085000F308100013095008B1506
:10057000161402308312C1000D30C200C301C40141
:100580007430BD000E30BE00BF01C001A630AE0009
:100590001330AF00B001B1010330A700B401B501C1
:1005A000B601B7014030A1000B30A200A301A401A5
:1005B00005158512F430CA000130CB0009208F20C8
:1005C000F430CA000130CB000920A3202D084402DA
:1005D000031DF42A2C084302031DF42A2B084202AF
:1005E000031DF42A2A0841020318F72A0511A6015F
:1005F00064002D084402031D072B2C084302031D31
:10060000072B2B084202031D072B2A084102031C5B
:10061000232B8512F430CA000130CB0009200130B1
:10062000B30085166430CA00CB01092085126430FE
:10063000CA00CB01092064003308063A0319222BB3
:10064000B30A112B632B2D084402031D312B2C08F8
:100650004302031D312B2B084202031D312B2A08B4
:100660004102FF3003180030F1002D084002031D45
:10067000432B2C083F02031D432B2B083E02031D76
:10068000432B2A083D02FF30031C0030F0007108A4
:10069000F0050319632BF430CA000130CB000920A8
:1006A0000130B30085166430CA00CB0109208512E1
:1006B0006430CA00CB01092064003308033A0319EF
:0806C000632BB30A522B080062
:1006C800A8220F30A800A9010B1C6D2B0508B20049
:1006D8000B1005180A2DBC010518742B7514752B01
:1006E800751032303C02FF3003180030F100F00181
:1006F8007518F00A7108F0050319922B6430CA00C6
:10070800CB010920BC0A3C080A3A031D8C2B85162C
:100718003C08193A031D912B8512702B0A303C02B4
:10072800FF30031C0030F10019303C02FF30031881
:100738000030F0007108F0050319142C8512A3206D
:1007480040082D02031DB22B3F082C02031DB22BBB
:100758003E082B02031DB22B3D082A02031CB52BB1
:10076800F72B2D084402031DC32B2C084302031D3D
:10077800C32B2B084202031DC32B2A084102031C6A
:10078800DF2B8512F430CA000130CB00092001307C
:10079800B30085166430CA00CB0109208512643085
:1007A800CA00CB01092064003308063A0319DE2B7E
:1007B800B30ACD2BF72BF430CA000130CB00092047
:1007C8000130B30085166430CA00CB0109208512B8
:1007D8006430CA00CB01092064003308033A0319C6
:1007E800F72BB30AE62B0515D030CA000730CB002B
:1007F80009202D084402031D0B2C2C084302031D5D
:100808000B2C2B084202031D0B2C2A08410203184B
:100818000E2C0511A801A901B401B501B601B70153
:1008280019303C02FF30031C0030F10032303C022A
:10083800FF3003180030F0007108F0050319BA2CD6
:100848008512A320E830CA000330CB0009202A080B
:10085800B8002B08B9002C08BA002D08BB00E830F6
:10086800F4000330F500F601F7012A08F0002B0820
:10087800F1002C08F2002D08F300EE207008A50006
:100888007008C5006622E830F4000330F500F60170
:10089800F7013808F0003908F1003A08F2003B087F
:1008A800F300EE207808F0007908F1007A08F200E9
:1008B8007B08F3007008B8007108B9007208BA0024
:1008C8007308BB006430F400F501F601F701EE206F
:1008D8007008A5007008C50066226430F400F501B0
:1008E800F601F7013808F0003908F1003A08F2007B
:1008F8003B08F300EE207808F0007908F1007A0848
:10090800F2007B08F3007008B8007108B90072089B
:10091800BA007308BB000A30F400F501F601F701CC
:10092800EE207008A5007008C50066220A30F400A1
:10093800F501F601F7013808F0003908F1003A0826
:10094800F2003B08F300EE207808F0007908F10087
:100958007A08F2007B08F3007008A500A501C5011C
:100968006622E830CA000330CB00092032303C024E
:10097800031C0A2D05150130B300203085066430AC
:10098800CA00CB0109203308143A0319CD2CB30A45
:10099800C12C8512FF30A6002608FF3A031D032D3F
:1009A8008516F430CA000130CB00092085120518DD
:1009B800FD2CBC010518E22C7514E32C751032309F
:1009C8003C02FF3003180030F100F0017518F00AFE
:1009D8007108F0050319F62C6430CA00CB01092010
:1009E800BC0ADE2C32303C02031CFC2CA6018F20F2
:1009F800022DF430CA000130CB000920D02C05119B
:100A0800A801A901B401B501B601B7012608003A49
:100A1800031D962D00302902031D142D0D302802C8
:100A2800031C8F2DA3202D084402031D252D2C08FF
:100A38004302031D252D2B084202031D252D2A08DC
:100A48004102031C282D051540082D02031D362DD3
:100A58003F082C02031D362D3E082B02031D362DA0
:100A68003D082A02031C392D05112708003C0318EC
:100A78008D2D3408F0003508F1003608F2003708EB
:100A8800F300F00A0319F10A0319F20A0319F30A29
:100A98007008B4007108B5007208B6007308B70092
:100AA8002108F0002208F1002308F2002408F300CE
:100AB8002708F400F501F601F7012B207308370227
:100AC800031D702D72083602031D702D7108350242
:100AD800031D702D70083402031C8D2D0515D030B0
:100AE800CA000730CB0009202D084402031D862DBB
:100AF8002C084302031D862D2B084202031D862D58
:100B08002A0841020318892D0511B401B501B6015F
:100B1800B701A801A901A80A0319A90A640063007A
:100B280000009A2D6430CA00CB010920682B9B2D48
:02400E00CC03E1
:00000001FF
