:02000000672B6C
:0C00060007308312FD00FD0B06280800E7
:10001200831203132230FC00F801F901FA01FB01FB
:10002200FC0303193F280310FB0CFA0CF90CF80C23
:10003200F30CF20CF10CF00C031C1128FC03031955
:1000420031287408F80775080318750FF907760840
:100052000318760FFA0777080318770FFB0715289E
:100062007408F80775080318750FF907760803185E
:0E007200760FFA0777080318770FFB070800D0
:1000800001308312F100F20172084B02031D4A286D
:1000900071084A02031C61280230FC004B30FD004D
:1000A000FD0B5028FC0B5028640072084B06031D02
:1000B0005B284A08710603196128F10A0319F20A3C
:0400C00044280800C8
:1000C400C33083129F05F0309F05BF309F05F03089
:1000D40083169F0483129F174A08F000F00D7010D6
:1000E400F00D701070089F041F1403209F149F1CB0
:1000F4007D28000079281F101E08F100F0018316E6
:100104001E0870048312CB007108CC000030CC04AC
:0A0114004B08F0004C08F100080051
:10011E008312C801C9010130C7000130CA00622034
:10012E007008C80771080318013EC9070230FC00A9
:10013E004B30FD00FD0BA128FC0BA1284708403ACF
:10014E000319AB28C70A94280630F2004808F000BD
:10015E004908F10072080319B928F10CF00CF113DB
:10016E00FF3EB2280030F200F3002D08F4002E08F6
:10017E00F5002F08F6003008F70009200A30F400C9
:10018E007008B1007108B2007208B3007308B400B1
:10019E0074080319D928B40CB30CB20CB10CB413F7
:0601AE00FF3ED02808000E
:1001B40001308312AC008516FA30CA00CB0140200E
:1001C4008512FA30CA00CB0140202C08033A0319E7
:0801D400ED28AC0ADD2808004B
:1001DC00831234082B02031DFD2833082A02031D49
:1001EC00FD2832082902031DFD2831082802031CB2
:1001FC0019298512F430CA000130CB00402001309F
:10020C00AC0085166430CA00CB01402085126430E6
:10021C00CA00CB01402064002C08063A03191829A7
:10022C00AC0A0729592934082B02031D2729330846
:10023C002A02031D272932082902031D2729310808
:10024C002802FF3003180030F10034084402031D6B
:10025C00392933084302031D392932084202031D90
:10026C00392931084102FF30031C0030F0007108BD
:10027C00F00503195929F430CA000130CB00402095
:10028C000130AC0085166430CA00CB0140208512C9
:10029C006430CA00CB01402064002C08033A0319D7
:0802AC005929AC0A4829080099
:1002B40083124508003A031D6B2985164130FC0062
:1002C400EE30FD00FD0B6429FC0B6429000085124F
:1002D40096290130C60046084502031C9629851656
:1002E4000230FB004530FC00A930FD00FD0B7829ED
:1002F400FC0B7829FB0B78290000000085120230E2
:10030400FB004530FC00A930FD00FD0B8729FC0BE8
:100314008729FB0B87290000000064004608450676
:1003240003199629C60A6D29E830CA000330CB00A8
:04033400402008005D
:1003380083120313FB01FA01F901F801A001730DFF
:10034800F80D7408F8027508031C750FF902760891
:10035800031C760FFA027708031C770FFB020001D3
:10036800031C0130A002F30D0730FC00730DF80DDB
:10037800F90DFA0DFB0DA00D7408731CD529F802B0
:100388007508031C750FF9027608031C760FFA022C
:100398007708031C770FFB020001031C0130A00241
:1003A800E629F80775080318750FF9077608031882
:1003B800760FFA0777080318770FFB070001031871
:1003C8000130A007F30DFC0BBA29720DF80DF90DD9
:1003D800FA0DFB0DA00D7408731C042AF8027508A9
:1003E800031C750FF9027608031C760FFA027708CA
:1003F800031C770FFB020001031C0130A002152A21
:10040800F80775080318750FF90776080318760FAB
:10041800FA0777080318770FFB0700010318013064
:10042800A007F20D0730FC00720DF80DF90DFA0D5A
:10043800FB0DA00D7408721C332AF8027508031C02
:10044800750FF9027608031C760FFA027708031C69
:10045800770FFB020001031C0130A002442AF807B1
:1004680075080318750FF90776080318760FFA0749
:1004780077080318770FFB07000103180130A0075E
:10048800F20DFC0B182A710DF80DF90DFA0DFB0D84
:10049800A00D7408721C622AF8027508031C750FF7
:1004A800F9027608031C760FFA027708031C770F07
:1004B800FB020001031C0130A002732AF80775082B
:1004C8000318750FF90776080318760FFA077708E7
:1004D8000318770FFB07000103180130A007F10D7F
:1004E8000730FC00710DF80DF90DFA0DFB0DA00D8C
:1004F8007408711C912AF8027508031C750FF9021B
:100508007608031C760FFA027708031C770FFB02A4
:100518000001031C0130A002A22AF807750803187D
:10052800750FF90776080318760FFA077708031886
:10053800770FFB07000103180130A007F10DFC0B32
:10054800762A700DF80DF90DFA0DFB0DA00D740843
:10055800711CC02AF8027508031C750FF902760889
:10056800031C760FFA027708031C770FFB020001C1
:10057800031C0130A002D12AF80775080318750F6B
:10058800F90776080318760FFA0777080318770F24
:10059800FB07000103180130A007F00D0730FC002D
:1005A800700DF80DF90DFA0DFB0DA00D7408701CF7
:1005B800EF2AF8027508031C750FF9027608031C68
:1005C800760FFA027708031C770FFB020001031C61
:1005D8000130A002002BF80775080318750FF907FA
:1005E80076080318760FFA0777080318770FFB07C2
:1005F800000103180130A007F00DFC0BD42A701875
:10060800132B7408F80775080318750FF90776088F
:100618000318760FFA0777080318770FFB07080007
:10062800673083168F0007308312990012308316C3
:100638009F000B3085000F308100013095008B152D
:100648001614E4308312A8000C30A900AA01AB01EB
:100658001030C1000E30C200C301C401BA30AD0071
:100668001330AE00AF01B0010330A700BB01BC01DD
:10067800BD01BE014030A1000B30A200A301A401BE
:1006880005158512F430CA000130CB004020DA206D
:10069800F430CA000130CB0040208F2034082B02F0
:1006A800031D602B33082A02031D602B3208290220
:1006B800031D602B310828020318632B0511A601BE
:0606C8006400EE200800B2
:1006CE0014230F30BF00C0010B1C702B0508B600A1
:1006DE000B100518D82CB5010518772B7514782B2F
:1006EE00751032303502FF3003180030F100F00182
:1006FE007518F00A7108F0050319952B6430CA00BD
:10070E00CB014020B50A35080A3A031D8F2B8516FA
:10071E003508193A031D942B8512732B0A303502B6
:10072E00FF30031C0030F10019303502FF30031882
:10073E000030F0007108F0050319D52B85128F20BB
:10074E0044083402031DB52B43083302031DB52B99
:10075E0042083202031DB52B410831020318B82B93
:10076E00EE200515D030CA000730CB0040203408EB
:10077E002B02031DCC2B33082A02031DCC2B32086F
:10078E002902031DCC2B310828020318CF2B05118B
:10079E00BF01C001BB01BC01BD01BE011930350254
:1007AE00FF30031C0030F10032303502FF300318E9
:1007BE000030F0007108F00503197B2C85128F2094
:1007CE00E830CA000330CB0040203108B7003208B1
:1007DE00B8003308B9003408BA00E830F40003302A
:1007EE00F500F601F7013108F0003208F100330888
:1007FE00F2003408F3009C217008A5007008C500B3
:10080E005A21E830F4000330F500F601F7013708FD
:10081E00F0003808F1003908F2003A08F3009C2184
:10082E007808F0007908F1007A08F2007B08F300EE
:10083E007008B7007108B8007208B9007308BA00E2
:10084E006430F400F501F601F7019C217008A50053
:10085E007008C5005A216430F400F501F601F70165
:10086E003708F0003808F1003908F2003A08F300B2
:10087E009C217808F0007908F1007A08F2007B08D4
:10088E00F3007008B7007108B8007208B900730859
:10089E00BA000A30F400F501F601F7019C21700848
:1008AE00A5007008C5005A210A30F400F501F601C2
:1008BE00F7013708F0003808F1003908F2003A085D
:1008CE00F3009C217808F0007908F1007A08F20014
:1008DE007B08F3007008A500A501C5015A21E83078
:1008EE00CA000330CB00402032303502031CD82C16
:1008FE0005150130AC00203085066430CA00CB01EE
:10090E0040202C08143A03198E2CAC0A822C851226
:10091E00FF30A6002608FF3A031DD12C8516F430B1
:10092E00CA000130CB00402085120518CB2CB50132
:10093E000518A32C7514A42C751032303502FF3017
:10094E0003180030F100F0017518F00A7108F00577
:10095E000319B72C6430CA00CB014020B50A9F2C76
:10096E0032303502031CCA2CA6010130AC002030F7
:10097E0085066430CA00CB0140202C08143A0319B6
:10098E00CA2CAC0ABE2CD02CF430CA000130CB00DD
:10099E004020912C0511BF01C001BB01BC01BD015E
:1009AE00BE012608003A031D642D00304002031DCF
:1009BE00E22C0D303F02031C5D2D8F2034082B02DC
:1009CE00031DF32C33082A02031DF32C32082902CF
:1009DE00031DF32C31082802031CF62C05154408C0
:1009EE003402031D042D43083302031D042D420857
:1009FE003202031D042D41083102031C072D05117F
:100A0E002708003C03185B2D3B08F0003C08F10062
:100A1E003D08F2003E08F300F00A0319F10A03192B
:100A2E00F20A0319F30A7008BB007108BC007208C1
:100A3E00BD007308BE002108F0002208F100230853
:100A4E00F2002408F3002708F400F501F601F7017F
:100A5E00092073083E02031D3E2D72083D02031D40
:100A6E003E2D71083C02031D3E2D70083B02031CF7
:100A7E005B2D0515D030CA000730CB00402034085E
:100A8E002B02031D542D33082A02031D542D320848
:100A9E002902031D542D310828020318572D051164
:100AAE00BB01BC01BD01BE01BF01C001BF0A0319DC
:100ABE00C00A640063000000682D6430CA00CB01D8
:060ACE0040206B2B692D96
:02400E00CC03E1
:00000001FF
