:02000000162ABE
:0C00060007308312FD00FD0B06280800E7
:10001200C33083129F05F0309F05BF309F05F0303B
:1000220083169F0483129F174508F000F00D70108D
:10003200F00D701070089F041F1403209F149F1C62
:100042002428000020281F101E08F100F00183164A
:100052001E0870048312C6007108C7000030C7046E
:0A0062004608F0004708F10008000E
:10006C0001308312F100F20172084602031D402890
:10007C0071084502031C57280230FC004B30FD0070
:10008C00FD0B4628FC0B4628640072084606031D2F
:10009C0051284508710603195728F10A0319F20A69
:0400AC003A280800E6
:1000B000831203132230FC00F801F901FA01FB015D
:1000C000FC0303198E280310FB0CFA0CF90CF80C36
:1000D000F30CF20CF10CF00C031C6028FC03031968
:1000E00080287408F80775080318750FF907760853
:1000F0000318760FFA0777080318770FFB076428B1
:100100007408F80775080318750FF90776080318BF
:0E011000760FFA0777080318770FFB07080031
:10011E0083169C1C942800008F2883124308831694
:10012E009B008312440883169A009C131C150B081F
:10013E00F0008B1355309D00AA309D009C14F01BCF
:0C014E00AA288B13AB288B171C1108008B
:10015A0001308312C50009207008A4007108A500A7
:10016A000530C500C60136200130C50009207008D7
:10017A00A4007108A5000030F200F3002608F4007C
:10018A002708F5002808F6002908F70058200A3041
:10019A00F4007008AE007108AF007208B00073086E
:1001AA00B10074080319E028B10CB00CAF0CAE0C06
:0801BA00B113FF3ED728080035
:1001C20001308312BB008516FA30C500C601362005
:1001D2008512FA30C500C60136203B08033A0319DE
:0801E200F428BB0AE428080020
:1001EA00AD2031083902031D042930083802031DE5
:1001FA0004292F083702031D04292E083602031C7E
:10020A000B293A180A2905110B290515420831024A
:10021A00031D192941083002031D192940082F021C
:10022A00031D19293F082E02031C20293E181F29E5
:10023A000511202905153D08003C031D26293C0807
:10024A00003C031868293C08F0003D08F100F2015F
:10025A00F301BD30F4009230F500F601F7015820A1
:10026A007008B2007108B3007208B4007308B500D0
:10027A0073082D02031D4B2972082C02031D4B29FA
:10028A0071082B02031D4B2970082A02031C6729D7
:10029A00F1010519F10A71083E06031D63293A188E
:1002AA0058290511592905151030C5002730C600EF
:1002BA0036203E186229051163290515AA01AB01EA
:1002CA00AC01AD017C292D08003C031D76292C08C0
:1002DA00003C031D76292B08923C031D76292A0827
:1002EA00BD3C03187C29AA01AB01AC01AD01080091
:1002FA00AD20C3012508C4008F2014308312C50025
:10030A00C60136200130C3002408C4008F201430EF
:10031A008312C500C60136200230C300FF30C40074
:10032A008F2014308312C500C60136200330C30063
:10033A003108C4008F2014308312C500C60136204C
:10034A000430C3003008C4008F2014308312C50063
:10035A00C60136200530C3002F08C4008F20143090
:10036A008312C500C60136200630C3002E08C40019
:0E037A008F2014308312C500C6013620080003
:10038800673083168F000730831299001230831666
:100398009F008312BE010130BA000730BC00BD01C6
:1003A800AA01AB01AC01AD010230B6000D30B700B7
:1003B800B801B9017430BF000E30C000C101C201DC
:1003C800CE30A6001330A700A801A90105110B30F3
:1003D800831685000F308100013095008B151614A7
:1003E80083120515AD2031083902031D052A30088E
:1003F8003802031D052A2F083702031D052A2E0877
:10040800360203180D2A3E180B2A05110C2A051569
:10041800122A3A18112A0511122A0515A00164009A
:04042800E1200800C7
:10042C00C4210F30A100A2010B1C1F2A0508A30038
:10043C000B100518052BBB010518262A7414272A46
:10044C00741032303B02FF3003180030F100F00121
:10045C007418F00A7108F00503193F2A6430C500BE
:10046C00C6013620BB0A0A303B02031C3E2A851605
:10047C00222A0A303B02FF30031C0030F1003230DC
:10048C003B02FF3003180030F0007108F00503192F
:10049C00F22A7D2131083902031D5E2A3008380208
:1004AC00031D5E2A2F083702031D5E2A2E08360212
:1004BC00FF3003180030F10042083102031D702A8E
:1004CC0041083002031D702A40082F02031D702AB8
:1004DC003F082E02FF3003180030F0007108F005C1
:1004EC000319972A0130BB0085168230FC00DD30E1
:1004FC00FD00FD0B7F2AFC0B7F2A000000008512FB
:10050C008230FC00DD30FD00FD0B8A2AFC0B8A2AB0
:10051C000000000064003B08033A0319972ABB0A49
:10052C007A2A31083902031DA52A30083802031D26
:10053C00A52A2F083702031DA52A2E083602031CF4
:10054C00C62A0130BB0085168230FC00DD30FD0070
:10055C00FD0BAE2AFC0BAE2A000000008512823087
:10056C00FC00DD30FD00FD0BB92AFC0BB92A0000A4
:10057C00000064003B08063A0319C62ABB0AA92AE4
:10058C003A18CA2A0511CB2A05158512E830C50080
:10059C000330C600362031083902031DDF2A30082B
:1005AC003802031DDF2A2F083702031DDF2A2E080D
:1005BC0036020318E72A3E18E52A0511E62A051526
:1005CC00EC2A3A18EB2A0511EC2A0515A101A20117
:1005DC00AA01AB01AC01AD0132303B02031C052B6F
:1005EC00FF30A000A001E1203E18FE2A0511FF2AD1
:1005FC000515A101A201AA01AB01AC01AD012008B6
:10060C00003A031D142B00302202031D0F2B0D305A
:10061C002102031C142BF520A101A2012008003A91
:10062C00031D362BA10A0319A20A2A08F0002B0875
:10063C00F1002C08F2002D08F300F00A0319F10A5E
:10064C000319F20A0319F30A7008AA007108AB0027
:10065C007208AC007308AD006400630000003A2B14
:0C066C006430C500C60136201A2A3B2B62
:02400E00CC03E1
:00000001FF
