:020000007A295B
:0C00060007308312FD00FD0B06280800E7
:10001200C33083129F05F0309F05BF309F05F0303B
:1000220083169F0483129F173908F000F00D701099
:10003200F00D701070089F041F1403209F149F1C62
:100042002428000020281F101E08F100F00183164A
:100052001E0870048312BA007108BB000030BB0492
:0A0062003A08F0003B08F100080026
:10006C0001308312F100F20172083A02031D40289C
:10007C0071083902031C57280230FC004B30FD007C
:10008C00FD0B4628FC0B4628640072083A06031D3B
:10009C0051283908710603195728F10A0319F20A75
:0400AC003A280800E6
:1000B000831203132230FC00F801F901FA01FB015D
:1000C000FC0303198E280310FB0CFA0CF90CF80C36
:1000D000F30CF20CF10CF00C031C6028FC03031968
:1000E00080287408F80775080318750FF907760853
:1000F0000318760FFA0777080318770FFB076428B1
:100100007408F80775080318750FF90776080318BF
:0E011000760FFA0777080318770FFB07080031
:10011E0083169C1C942800008F28831237088316A0
:10012E009B008312380883169A009C131C150B082B
:10013E00F0008B1355309D00AA309D009C14F01BCF
:0C014E00AA288B13AB288B171C1108008B
:10015A0001308312B90009207008A4007108A500B3
:10016A000530B900BA0136200130B90009207008FB
:10017A00A4007108A5000030F200F3002008F40082
:10018A002108F5002208F6002308F70058200A3053
:10019A00F4007008A7007108A8007208A900730883
:1001AA00AA0074080319E028AA0CA90CA80CA70C29
:0801BA00AA13FF3ED72808003C
:1001C20001308312B6008516FA30B900BA01362022
:1001D2008512FA30B900BA0136203608033A0319FB
:0801E200F428B60AE428080025
:1001EA00AD20B7012508B8008F2014308312B9005A
:1001FA00BA0136200130B7002408B8008F20143025
:10020A008312B900BA0136200230B700FF30B800B5
:10021A008F2014308312B900BA0136200330B70098
:10022A002A08B8008F2014308312B900BA01362088
:10023A000430B7002908B8008F2014308312B9009F
:10024A00BA0136200530B7002808B8008F201430CC
:10025A008312B900BA0136200630B7002708B80061
:0E026A008F2014308312B900BA01362008002C
:10027800673083168F000730831299001230831677
:100288009F000B3085000F308100013095008B15E1
:10029800161402308312B1000D30B200B301B4015C
:1002A8007430AB000E30AC00AD01AE018830A00058
:1002B8001330A100A201A30105150511AD202A08DC
:1002C8003402031D712929083302031D71292808E6
:1002D8003202031D712927083102031875290511F7
:0C02E80076290515A6016400E12008003D
:1002F4003C210F30AF00B0010B1C83290508B50069
:100304000B100518A12AB60105188A2972148B2925
:10031400721032303602FF3003180030F100F00161
:100324007218F00A7108F0050319A3296430B900A2
:10033400BA013620B60A0A303602031CA2298516F1
:1003440086290A303602FF30031C0030F1003230B7
:100354003602FF3003180030F0007108F00503196D
:10036400462AF5202A083402031DC229290833022B
:10037400031DC22928083202031DC229270831029D
:10038400FF3003180030F1002E082A02031DD4297F
:100394002D082902031DD4292C082802031DD42961
:1003A4002B082702FF3003180030F0007108F00515
:1003B4000319FB290130B60085168230FC00DD30BC
:1003C400FD00FD0BE329FC0BE3290000000085126E
:1003D4008230FC00DD30FD00FD0BEE29FC0BEE2924
:1003E4000000000064003608033A0319FB29B60A2A
:1003F400DE292A083402031D092A29083302031DB1
:10040400092A28083202031D092A27083102031C7D
:100414002A2A0130B60085168230FC00DD30FD004A
:10042400FD0B122AFC0B122A0000000085128230F8
:10043400FC00DD30FD00FD0B1D2AFC0B1D2A000015
:10044400000064003608063A03192A2AB60A0D2A5F
:1004540005158512E830B9000330BA0036202A08A1
:100464003402031D3F2A29083302031D3F2A2808AA
:100474003202031D3F2A270831020318432A0511BB
:10048400442A0515AF01B00132303602031CA12AFB
:1004940005150130B600203085066430B900BA0174
:1004A40036203608143A0319592AB60A4D2A8512F9
:1004B400FF30A6002608FF3A031D9D2A8516F43056
:1004C400B9000130BA00362085120518972AB60102
:1004D40005186E2A72146F2A721032303602FF30F9
:1004E40003180030F100F0017218F00A7108F005E9
:1004F4000319822A6430B900BA013620B60A6A2A7E
:1005040032303602031C962AA6010130B600203090
:1005140085066430B900BA0136203608143A031946
:10052400952AB60A892A85129C2AF430B90001302A
:10053400BA0036205C2AE1200511AF01B00126087B
:10054400003A031DD22A00303002031DAB2A0D30BD
:100554002F02031CD22AAD202A083402031DBC2A10
:1005640029083302031DBC2A28083202031DBC2AB1
:1005740027083102031CBF2A05152E082A02031D71
:10058400CD2A2D082902031DCD2A2C082802031D7B
:10059400CD2A2B082702031CD02A0511AF01B00174
:1005A4002608003A031DDD2AAF0A0319B00A6400C5
:1005B40063000000E12A6430B900BA0136207E29C4
:0205C400E22A29
:02400E00CC03E1
:00000001FF
