:020000007E2858
:0C00060007308312FD00FD0B06280800E7
:10001200603083168F0007308312990002308316F6
:100022009F000B30850081131514831205150130D2
:10003200A0008516C330FC00CD30FD00FD0B1F284B
:10004200FC0B1F288512C330FC00CD30FD00FD0BD8
:100052002828FC0B28282008033A03193228A00A72
:040062001A28080050
:10006600C33083129F05F0309F05BF309F05F030E7
:1000760083169F0483129F172508F000F00D701059
:10008600F00D701070089F041F1403209F149F1C0E
:100096004E2800004A281F101E08F100F0018316A2
:1000A6001E0870048312A6007108A7000030A7047A
:0A00B6002608F0002708F1000800FA
:1000C00083169C1C6528000060288312250883166F
:1000D0009B008312260883169A009C131C150B089C
:1000E000F0008B1355309D00AA309D009C14F01B2E
:0C00F0007B288B137C288B171C11080048
:1000FC0009202C30A3000130A4000518E028A00131
:10010C0005188A2873148B2873100A302002FF30CC
:10011C0003180030F100F0017318F00A7108F005B3
:10012C000319A4288230FC00DD30FD00FD0B9C2857
:10013C00FC0B9C2800000000A00A86280A30200234
:10014C00031CE0280130A50033207008A1007108C1
:10015C00A200A5012208A60060201A30FC00F8308D
:10016C00FD00FD0BB728FC0BB728000001308312F3
:10017C00A5002108A60060201A30FC00F830FD0014
:10018C00FD0BC628FC0BC62800008312051585162E
:10019C000518DB280D30FC00FB30FD00FD0BD428CE
:1001AC00FC0BD42800000000CE2885122C30A300B4
:1001BC000130A400A30A0319A40A01302402031D70
:1001CC00E9282C302302031C06290130A50033201A
:1001DC007008A1007108A20002307102031DF828FA
:1001EC00463070020318FB2805152208023C031D3B
:1001FC00012921088B3C031804290511A301A40132
:10020C008230FC00DD30FD00FD0B0A29FC0B0A29B5
:08021C000000000083281129F5
:00000001FF
