:02000000B32823
:0C00060007308312FD00FD0B06280800E7
:1000120001308312A50085160230FB004530FC003A
:10002200A930FD00FD0B1328FC0B1328FB0B132832
:100032000000000085120230FB004530FC00A930B0
:10004200FD00FD0B2228FC0B2228FB0B22280000BE
:1000520000002508033A03193028A50A0C280800D5
:1000620083169C1C3628000031288312260883162A
:100072009B008312270883169A009C131C150B08F9
:10008200F0008B1355309D00AA309D009C14F01B8C
:0C0092004C288B134D288B171C11080004
:10009E00C33083129F05F0309F05BF309F05F030AF
:1000AE0083169F0483129F172608F000F00D701020
:1000BE00F00D701070089F041F1403209F149F1CD6
:1000CE006A28000066281F101E08F100F001831632
:1000DE001E0870048312A7007108A8000030A8043F
:0A00EE002708F0002808F1000800C0
:1000F80001308312A6004F207008A0007108A100EB
:10010800A6012108A70031201A30FC00F830FD00B4
:10011800FD0B8C28FC0B8C28000001308312A600F4
:100128002008A70031201A30FC00F830FD00FD0B34
:0A0138009B28FC0B9B280000080028
:10014200603083168F0007308312990002308316C5
:100152009F000B3085008113151483120515A2012F
:040162000920080068
:10016600A1202C30A3000130A40005189429A50174
:100176000518BF287314C028731032302502FF30CB
:1001860003180030F100F0017318F00A7108F00549
:100196000319DE288230FC00DD30FD00FD0BD1287E
:1001A600FC0BD12800000000A50A0A302502031C1A
:1001B600DD288516BB280A302502FF30031C0030D7
:1001C600F10032302502FF3003180030F0007108CC
:1001D600F005031903297C208312051585120630C4
:1001E600FB001330FC00AD30FD00FD0BF828FC0BC6
:1001F600F828FB0BF828000000000511A301A40154
:1002060032302502031C93297C2083120515013008
:10021600A500203085068230FC00DD30FD00FD0B98
:100226001229FC0B1229000000002508143A0319B4
:100236001E29A50A0C298512FF30A2002208FF3AC2
:10024600031D8D2985160330FB008A30FC005530CE
:10025600FD00FD0B2C29FC0B2C29FB0B2C29000087
:100266000000851205187E29A301A40105183D2961
:1002760073143E29731000302402031D44293230C2
:100286002302FF3003180030F100F0017318F00A62
:100296007108F00503195D298230FC00DD30FD0090
:1002A600FD0B5329FC0B532900000000A30A031978
:1002B600A40A392900302402031D6329323023029F
:1002C600031C7D297C208312A2010130A500203069
:1002D60085068230FC00DD30FD00FD0B7029FC0B2D
:1002E6007029000000002508143A03197C29A50A84
:1002F6006A2985128C290330FB008A30FC005530B0
:10030600FD00FD0B8429FC0B8429FB0B84290000CE
:1003160000002129092005112C30A3000130A4007A
:1003260085122208003A031DBE29A30A0319A40A4E
:1003360001302402031DA1292C302302031CBE29EF
:100346000130A6004F207008A0007108A1000230FD
:100356007102031DB029463070020318B329051532
:100366002108023C031DB92920088B3C0318BC292F
:100376000511A301A4018230FC00DD30FD00FD0B58
:0E038600C229FC0BC22900000000B828C929BA
:02400E00C403E9
:00000001FF
