:02000000A7282F
:0C00060007308312FD00FD0B06280800E7
:1000120001308312A5008516C330FC00CD30FD00EF
:10002200FD0B1128FC0B11288512C330FC00CD30CA
:10003200FD00FD0B1A28FC0B1A282508033A0319A8
:080042002428A50A0C2808007F
:10004A0083169C1C2A28000025288312260883165A
:10005A009B008312270883169A009C131C150B0811
:10006A00F0008B1355309D00AA309D009C14F01BA4
:0C007A0040288B1341288B171C11080034
:10008600C33083129F05F0309F05BF309F05F030C7
:1000960083169F0483129F172608F000F00D701038
:1000A600F00D701070089F041F1403209F149F1CEE
:1000B6005E2800005A281F101E08F100F001831662
:1000C6001E0870048312A7007108A8000030A80457
:0A00D6002708F0002808F1000800D8
:1000E00001308312A60043207008A2007108A3000B
:1000F000A6012308A70025201A30FC00F830FD00D7
:10010000FD0B8028FC0B8028000001308312A60024
:100110002208A70025201A30FC00F830FD00FD0B56
:0A0120008F28FC0B8F280000080058
:10012A00603083168F0007308312990002308316DD
:10013A009F000B3085008113151483120515A40145
:04014A000920080080
:10014E0095202C30A0000130A10005187329A501BF
:10015E000518B3287314B428731032302502FF30FB
:10016E0003180030F100F0017318F00A7108F00561
:10017E000319D2288230FC00DD30FD00FD0BC528AE
:10018E00FC0BC52800000000A50A0A302502031C3E
:10019E00D1288516AF280A302502FF30031C003007
:1001AE00F10032302502FF3003180030F0007108E4
:1001BE00F0050319F72870208312051585120630F5
:1001CE00FB001330FC00AD30FD00FD0BEC28FC0BEA
:1001DE00EC28FB0BEC28000000000511A001A1018A
:1001EE0032302502031C722970208312051501304E
:1001FE00A500203085068230FC00DD30FD00FD0BB1
:10020E000629FC0B0629000000002508143A0319E4
:10021E001229A50A00298512FF30A4002408FF3AEE
:10022E00031D6C2985160330FB008A30FC00553007
:10023E00FD00FD0B2029FC0B2029FB0B20290000C3
:10024E000000851205185D29A001A10105183129AC
:10025E0073143229731000302102031D38293230F5
:10026E002002FF3003180030F100F0017318F00A7D
:10027E007108F005031951298230FC00DD30FD00B4
:10028E00FD0B4729FC0B472900000000A00A0319AB
:10029E00A10A2D2900302102031D572932302002D8
:1002AE00031C5C2970208312A4016B290330FB0010
:1002BE008A30FC005530FD00FD0B6329FC0B6329D1
:1002CE00FB0B6329000000001529092005112C30B5
:1002DE00A0000130A10085122408003A031D9D29BB
:1002EE00A00A0319A10A01302102031D80292C3016
:1002FE002002031C9D290130A60043207008A20095
:10030E007108A30002307102031D8F29463070025E
:10031E000318922905152308023C031D982922086B
:10032E008B3C03189B290511A001A1018230FC0012
:10033E00DD30FD00FD0BA129FC0BA1290000000002
:04034E00AC28A82906
:02400E00C403E9
:00000001FF
