:02000000A02935
:0C00060007308312FD00FD0B06280800E7
:10001200C33083129F05F0309F052009F00070085D
:100022009F05F03083169F0483129F173C08F0004F
:10003200F00D7010F00D701070089F041F14032053
:100042009F149F1C2628000022281F101E08F10062
:0E005200F00183161E08F0040030F1040800CF
:1000600001308312F1000030F20072083D02031DDE
:100070003B2871083C02031C4A280230FC004B302C
:10008000FD00FD0B4128FC0B41286400F10A031917
:06009000F20A3528080009
:10009600831203132230FC00F801F901FA01FB0177
:1000A600FC03031981280310FB0CFA0CF90CF80C5D
:1000B600F30CF20CF10CF00C031C5328FC0303198F
:1000C60073287408F80775080318750FF90776087A
:1000D6000318760FFA0777080318770FFB075728D8
:1000E6007408F80775080318750FF90776080318DA
:0E00F600760FFA0777080318770FFB0708004C
:1001040001308312BC00092070088312A200710818
:10011400A3000530BC000030BD0030200130BC001D
:10012400092070088312A2007108A3000030F200B5
:10013400F3003608F4003708F5003808F6003908EB
:10014400F7004B200A30F4007008A6007108A700DD
:100154007208A8007308A90074080319B828A90C28
:0E016400A80CA70CA60CA913FF3EAF2808009C
:0C017200831225088A002408820008007F
:10017E0001308312A1002108033C031CD2288516EE
:10018E00FA30BC00BD0130208512FA30BC00BD0132
:08019E003020A10AC22808006C
:1001A60083169C1CD8280000D32883123A0883168D
:1001B6009B0083123B0883169A009C131C150B08A0
:1001C600F0008B1355309D00AA309D009C14F01B47
:0C01D600EE288B13EF288B171C1108007B
:1001E2008220BA012308F000F1017008BB00D3207D
:1001F20014308312BC000030BD0030200130BA0040
:10020200FF302205BB00D32014308312BC00003023
:10021200BD0030200230BA00FF30BB00D3201430C2
:100222008312BC000030BD0030200330BA00290820
:10023200F000F101F201F3017008BB00D320143089
:100242008312BC000030BD0030200430BA00280800
:10025200F0002908F100F201F3017008BB00D3207D
:1002620014308312BC000030BD0030200530BA00CB
:100272002708F0002808F1002908F200F3017008AD
:10028200BB00D32014308312BC000030BD003020EC
:100292000630BA00FF302605BB00D320143083128B
:0A02A200BC000030BD003020080051
:1002AC00B9208A110A128000840AA40A0319A50A2B
:0802BC00F003031D56290800A0
:1002C400673083168F00073083129900123083162B
:1002D4009F000B3085000F308100013095008B1595
:1002E400161402308312AE000D30AF00B001B1011C
:1002F4007430B2000E30B300B401B5018830B600DA
:100304001330B700B801B901051505118220290879
:100314003102031D972928083002031D9729270855
:100324002F02031D972926082E0203189B29051165
:0C0334009C290515AD016400BF200800E5
:10034000EE2262210F30AA000030AB000B1CAB295B
:100350000508AC000B100518A52AA1010518C02935
:10036000323021020318C0296430BC000030BD00C7
:100370003020A10A0A302102031CBF298516AE29AC
:100380000A302102031C532A323021020318532A57
:10039000F12029083102031DD72928083002031D46
:1003A000D72927082F02031DD72926082E02031854
:1003B000082A35082902031DE72934082802031DED
:1003C000E72933082702031DE7293208260203180C
:1003D000082A0130A1002108033C031C082A8516C5
:1003E0008230FC00DD30FD00FD0BF429FC0BF4290C
:1003F0000000000085128230FC00DD30FD00FD0BA6
:10040000FF29FC0BFF29000000006400A10AEB2972
:1004100029083102031D162A28083002031D162A56
:1004200027082F02031D162A26082E02031C372A2E
:100430000130A1002108063C031C372A85168230B2
:10044000FC00DD30FD00FD0B232AFC0B232A0000FD
:10045000000085128230FC00DD30FD00FD0B2E2AED
:10046000FC0B2E2A000000006400A10A1A2A0515C0
:100470008512E830BC000330BD003020290831026D
:10048000031D4C2A28083002031D4C2A27082F027E
:10049000031D4C2A26082E020318502A0511512A42
:1004A0000515AA01AB0132302102031CA52A05154E
:1004B0000130A1002108143C031C672A2030850666
:1004C0006430BC000030BD003020A10A5A2A8512D9
:1004D0000130AD002D08013A031DA12A8516F43024
:1004E000BC000130BD003020851205189B2AA101F7
:1004F0000518852A323021020318852A6430BC0091
:100500000030BD003020A10A782A32302102031CBD
:100510009A2AAD010130A1002108143C031C992A3C
:10052000203085066430BC000030BD003020A10AB8
:100530008C2A8512A02AF430BC000130BD00302086
:100540006A2ABF200511AA01AB012D08003A031D3C
:10055000D62A00302B02031DAF2A0D302A02031CBD
:10056000D62A822029083102031DC02A2808300219
:10057000031DC02A27082F02031DC02A26082E02A9
:10058000031CC32A051535082902031DD12A340886
:100590002802031DD12A33082702031DD12A32085D
:1005A0002602031CD42A0511AA01AB012D08003A2A
:1005B000031DE12AAA0A0319AB0A640063000000C4
:1005C000E62A6430BC000030BD003020A629E72AAE
:1005DC002030840001308312F000ED30A400023092
:0605EC00A50056210800E5
:0205DA004034AB
:02400E00CC03E1
:00000001FF
