:02000000E22BF1
:100006008312F101F2015A087202031D0C285908E5
:10001600710203181C280230FC004430FD00FD0B61
:100026001228FC0B122800006400F10A0319F20AD8
:040036000628080090
:0C003A0007308312FD00FD0B2028080099
:1000460005308400000800088312F000F0127008E2
:04005600800008001E
:10005A0005308400000800088312F000701270084E
:04006A00800008000A
:04006E000000080086
:1000720083168516051683124910851A4428491CD1
:08008200432844283E28080031
:10008A0083160516372037208516372037202D206E
:10009A00831605123720372023208316851208007D
:1000AA008312D70154085702031869280515550801
:1000BA00D9005608DA00032005115508D900560858
:0A00CA00DA000320D70A57280800C7
:1000D40001308312D7000030D8008030D500D6011B
:1000E4005508560403199F28372037203720372016
:1000F4002320831685123720372083125508540590
:10010400F00000305605F1007008710403198D28C1
:100114008316051690282D208316051237203720C4
:10012400851683124910851A9B28491C9A289B28F6
:100134009528D60CD50CD6137228D701D8013720B0
:1001440037202320831685123720372005163720C1
:10015400372037203720851683124910851AB62890
:10016400491CB528B628B028D701D8013720372034
:10017400051EBD2857143720372037203720372055
:1001840037203720372037203720372037203720B3
:100194003720372037202320831685122D208316FD
:0A01A400051283125708F00008004E
:1001AE00831203132230FC00F801F901FA01FB015E
:1001BE00FC0303190D290310FB0CFA0CF90CF80CB7
:1001CE00F30CF20CF10CF00C031CDF28FC030319EA
:1001DE00FF287408F80775080318750FF9077608D5
:1001EE000318760FFA0777080318770FFB07E32833
:1001FE007408F80775080318750FF90776080318C1
:0E020E00760FFA0777080318770FFB07080032
:10021C002D2083160512372037208516831249109E
:10022C00851A1C29491C1B291C2916293720372003
:10023C0037203720372037203720372083160516F4
:06024C00372037200800F6
:10025200C33083129F05F0309F052509F000700816
:100262009F05F03083169F0483129F175408F000F5
:10027200F00D7010F00D701070089F041F141D20F7
:100282009F149F1C4629000042291F101E08F100DE
:0E029200F00183161E08F0040030F10408008D
:1002A000831238083E02031D5F2937083D02031DF3
:1002B0005F2936083C02031D5F2935083B02031CF9
:1002C0006E29F430D9000130DA0003200630D40062
:1002D0006430D5000030D60055209A2938083E02F7
:1002E000031D7C2937083D02031D7C2936083C028A
:1002F000031D7C2935083B0203189A293808460259
:10030000031D8C2937084502031D8C293608440239
:10031000031D8C2935084302031C9A29F430D900A7
:100320000130DA0003200330D4006430D5000030FF
:06033000D6005520080074
:100336008312CF01D001D101D201CE0140304E024D
:100346000318C9290130D40029210030F200F30036
:1003560083124F08F00750080318500FF107510891
:100366000318510FF20752080318520FF3077008CB
:10037600CF007108D0007208D1007308D200013096
:10038600D9000030DA000320CE0AA1290630F40095
:100396004F08F0005008F1005108F2005208F3002F
:1003A60074080319DD29F30CF20CF10CF00CF313AD
:1003B600FF3ED4290030F200F3003F08F400400865
:1003C600F5004108F6004208F700D7200A30F4008D
:1003D6007008B5007108B6007208B7007308B80057
:1003E60074080319FD29B80CB70CB60CB50CB81374
:0603F600FF3EF42908009F
:1003FC008312D001D1018030D2000030D3005208DA
:10040C0053040319282A3720372083160516372062
:10041C003720851683124910851A182A491C172A69
:10042C00182A122A051E1E2A5208D0045308D10479
:10043C00372037202320831685128312D30CD20C3D
:10044C00D313052A831605163720372083124E083E
:10045C004F040319342A2D208316051283163720D6
:10046C003720851683124910851A402A491C3F2AC9
:10047C00402A3A2A3720372023208316851237202A
:10048C0037202D208316051283125008F000080027
:10049C0083124E08003A031D5B2A05153230D90031
:1004AC000030DA00032005116C2ACF014E084F02F0
:1004BC0003186C2A0515FA30D900DA01032005114E
:1004CC00FA30D900DA010320CF0A5C2AE830D900CF
:0804DC000330DA0003200800E0
:1004E400831203137008F100F0010830FC00710856
:1004F400F40C0318812AFC0B7A2AF101003403104E
:10050400862AF40C0318F107F10CF00CFC0B832A77
:020514000800DD
:0C05160083123A088A00390882000800AD
:10052200831205156430D9000030DA000320392027
:100532006430D9000030DA0003204520D030831225
:10054200D4006A20D4016A20D4016A205308D4005E
:100552006A205208D4006A204E08D4006A204F084C
:10056200D4006A205008D4006A205108D4006A20BE
:100572000E2120308312D9000330DA000320051146
:0C058200F430D9000130DA00032008003A
:10058E008312CD014C083302031DCF2A4B083202D1
:10059E00031CD92A4B08B202031CB3034C08B30246
:0C05AE00CD0AC92A4D08CE004E220800DC
:1005BA008312051545200E2101308312D90000301F
:1005CA00DA0003204520D0308312D4006A2001309B
:1005DA00D4006A204520D1308312D4006A20013029
:1005EA00CE000030CF00FE217008CB004B08B400CB
:1005FA004B08F000F00CF013F00CF013F00CF013B1
:10060A00F00CF0130A30F40072220F304B05F1009F
:10061A0071087007AF000130CE000030CF00FE2114
:10062A007008B4003F307005CB004B08B4004B088B
:10063A00F000F00CF013F00CF013F00CF013F00CC7
:10064A00F0130A30F40072220F304B05F1007108E2
:10065A007007AE00CE01CF01FE217008B40007304A
:10066A007005B0000E2101308312D9000030DA0083
:06067A0003200511080039
:10068000673083168F00073083129900123083166B
:100690009F000A3085000F30810095018B1596155B
:1006A0000512831205168316851283128516E4300F
:1006B000BB000C30BC00BD01BE011030C3000E30C9
:1006C000C400C501C601BA30BF001330C000C1016B
:1006D000C2010330C80005140511AD012D0803192E
:1006E000972BC70185197F2B0F30470203187F2BEB
:1006F0006430D9000030DA000320C70A722B4708A3
:100700000F3A031D972B0130CE003030CF0003305D
:10071000D0002630D1000430D2000530D300912221
:100720000A30D4006430D5000030D6005520F430B3
:10073000D9000130DA0003200330D400FA30D500AC
:10074000D60155209B2138083E02031DB12B3708E6
:100750003D02031DB12B36083C02031DB12B3508A9
:100760003B020318B42B0510C910AB01AC0150219A
:0207700008007F
:100772008B228A110A128000840AB90A0319BA0A62
:08078200F003031DB92B080070
:10078A0083120313F801F9011030FC00710DF80D02
:10079A00F90D7408F8027508031C750FF90203189D
:1007AA00DD2B7408F80775080318750FF90703108D
:0A07BA00F00DF10DFC0BCB2B080035
:1007C400E82540230B1CE92B0508B1000B10851903
:1007D4000A2DC7018519032C323047020318032C54
:1007E4006430D9000030DA000320C70A47080A3A07
:1007F400031DFD2B05154708193A031D022C05118D
:10080400EC2B0A304702031C3A2C19304702031818
:100814003A2C0514D030D9000730DA0003209B218C
:1008240038083E02031D202C37083D02031D202CEE
:1008340036083C02031D202C35083B020318232CE8
:10084400051046083802031D312C45083702031DE4
:10085400312C44083602031D312C43083502031899
:10086400342C5021AB01AC01A701A801A901AA01B4
:1008740019304702031CA72C323047020318A72C57
:100884009B21E830D9000330DA0003203508B20098
:100894003608B300E830CB000330CC00C722643004
:1008A400CB000030CC00C7220A30CB000030CC0093
:1008B400C722CE014E222D080319A72CE830D900F7
:1008C4000330DA0003200230D4006430D500003055
:1008D400D6005520DD22E830D9000330DA000320A9
:1008E4002E08B200B3010A30CB000030CC00C7227E
:1008F4000A30F4000030F5003208F0003308F1004B
:10090400C5237808F0007908F1007008CE004E2263
:10091400E830D9000330DA0003202F08B200B30115
:100924000A30CB000030CC00C7220A30F40000307B
:10093400F5003208F0003308F100C5237808F00010
:100944007908F1007008CE004E2232304702031CB1
:100954000A2D0514CA0114304A020318BA2C0430B3
:1009640085066430D9000030DA000320CA0AAD2CB1
:100974000511C914C91CE22C0515F430D900013045
:10098400DA00032005118519DB2CC7018519D52C44
:10099400323047020318D52C6430D9000030DA0015
:1009A4000320C70AC82C32304702031CDA2CC910B2
:1009B400E02CF430D9000130DA0003206400BC2CB0
:1009C400CA0114304A020318F02C0430850664303E
:1009D400D9000030DA000320CA0AE32C9B2138082E
:1009E4003E02031DFF2C37083D02031DFF2C360871
:1009F4003C02031DFF2C35083B020318022D051091
:100A04000D30AB000030AC00A701A801A901AA0178
:100A1400C918CD2D00302C02031D122D0D302B02D0
:100A2400031CC62D9B2138083E02031D232D3708C5
:100A34003D02031D232D36083C02031D232D3508DA
:100A44003B02031C262D051446083802031D342DD1
:100A540045083702031D342D44083602031D342D86
:100A640043083502031C372D0510AB01AC012D08DA
:100A740003193D2DA60A4808003C0318912D2708A8
:100A8400F0002808F1002908F2002A08F300F00A0F
:100A94000319F10A0319F20A0319F30A7008A700EB
:100AA4007108A8007208A9007308AA002008F000C1
:100AB4002108F1002208F2002308F3004808F4009A
:100AC400F501F601F701D72073082A02031D742DDE
:100AD40072082902031D742D71082802031D742D48
:100AE40070082702031C912D0514D030D90007305B
:100AF400DA00032038083E02031D8A2D37083D0220
:100B0400031D8A2D36083C02031D8A2D35083B023D
:100B140003188D2D0510A701A801A901AA011430FD
:100B24002602031CC62DDD222E08043A031DC42D03
:100B34000B302F020318C42D2408031DC32D3008C5
:100B4400013A0319AA2D3008043A0319AA2DC32D1A
:100B540005141030D9002730DA00032038083E028B
:100B6400031DBE2D37083D02031DBE2D36083C0271
:100B7400031DBE2D35083B020318C12D051001309D
:100B8400A400C52DA401A601AB0A0319AC0A640094
:100B940063000000D22D6430D9000030DA00032055
:040BA400E42BD32D3E
:100BD000203084000E308312F000D930B900053087
:060BE000BA00B923080071
:080BB20043340B34003400341D
:020BBA00003405
:020BBC004034C3
:020BBE001434ED
:080BC00000340034003400345D
:040BC80000340034C1
:020BCC000034F3
:02400E00CC03E1
:00000001FF
