:020000000328D3
:10000600D2230B1C09280508BA000B1085197E2976
:10001600BF018519102875141128751032303F025A
:10002600FF3003180030F100F0017518F00A71086E
:10003600F00503192E286430D500D601E626BF0A3E
:100046003F080A3A031D282805153F08193A031DDB
:100056002D2805110C280A303F02FF30031C003002
:10006600F10019303F02FF3003180030F00071082C
:10007600F00503196F280511E32549083002031D11
:100086004E2848082F02031D4E2847082E02031D3E
:100096004E2846082D0203185128CA240514D030CC
:1000A600D5000730D600E62630083602031D65283F
:1000B6002F083502031D65282E083402031D652806
:1000C6002D0833020318682805100511C401C5015F
:1000D600C001C101C201C30119303F02FF30031C38
:1000E6000030F10032303F02FF3003180030F000DC
:1000F6007108F0050319F7280511E325E830D50046
:100106000330D600E6262D08BB002E08BC002F08BB
:10011600BD003008BE00E830F4000330F500F601FB
:10012600F7012D08F0002E08F1002F08F200300824
:10013600F3005A227008AC007008CE00BD26E830E5
:10014600F4000330F500F601F7013B08F0003C0827
:10015600F1003D08F2003E08F3005A227808F0004C
:100166007908F1007A08F2007B08F3007008BB00FA
:100176007108BC007208BD007308BE006430F4004C
:10018600F501F601F7015A227008AC007008CE009E
:10019600BD266430F400F501F601F7013B08F000D6
:1001A6003C08F1003D08F2003E08F3005A227808A8
:1001B600F0007908F1007A08F2007B08F300700875
:1001C600BB007108BC007208BD007308BE000A308F
:1001D600F400F501F601F7015A227008AC00700828
:1001E600CE00BD26CE01BD2632303F02031C7E293D
:1001F60005140130B200043085066430D500D601FE
:10020600E62664003208143A03190B29B20AFE28BE
:100216000511FF30A3002308FF3A031D52290515D7
:10022600F430D5000130D600E626051185194B2994
:10023600BF018519202975142129751032303F0216
:10024600FF3003180030F100F0017518F00A71084C
:10025600F005031935296430D500D601E626BF0A14
:1002660064001C2932303F02031C4A29A3010130D5
:10027600B200043085066430D500D601E626640057
:100286003208143A03194929B20A3C2905115029A2
:10029600F430D5000130D600E62664000E29E325A9
:1002A60030083602031D61292F083502031D612916
:1002B6002E083402031D61292D0833020318642910
:1002C600051049083002031D722948082F02031D34
:1002D600722947082E02031D722946082D020318AB
:1002E6007529CA240D30C400C501C001C101C2016F
:1002F600C301A20164002308003A031D542A0030FA
:100306004502031D88290D304402031C4D2AE325AE
:1003160030083602031D99292F083502031D992935
:100326002E083402031D99292D083302031C9C292B
:10033600051449083002031DAA2948082F02031D87
:10034600AA2947082E02031DAA2946082D02031CC6
:10035600AD290510C401C5012408013A031DB429BD
:10036600A20A2908003C0318082A4008F0004108A0
:10037600F1004208F2004308F300F00A0319F10AFB
:100386000319F20A0319F30A7008C0007108C100C4
:100396007208C2007308C3002508F0002608F100A1
:1003A6002708F2002808F3002908F400F501F601F1
:1003B600F7012A2673084302031DEB29720842023D
:1003C600031DEB2971084102031DEB297008400249
:1003D600031C082A0514D030D5000730D600E626BF
:1003E60030083602031D012A2F083502031D012A93
:1003F6002E083402031D012A2D0833020318042A8D
:100406000510C001C101C201C30114302202031C40
:100416004D2A36253708043AFF30031D0030F10017
:100426000B303802FF3003180030F0007108F00579
:1004360003194B2A2108003A031D4A2A3108013ABA
:10044600FF30031D0030F1003108043AFF30031D70
:100456000030F0007108F00403194A2A0514103020
:10046600D5002730D600E62630083602031D452A79
:100476002F083502031D452A2E083402031D452A7E
:100486002D0833020318482A05100130A1004C2A12
:10049600A101A201C40A0319C50A64006300000091
:0E04A600582A6430D500D601E6260428592ACB
:1004B40083120313FB01FA01F901F801A001730D82
:1004C400F80D7408F8027508031C750FF902760814
:1004D400031C760FFA027708031C770FFB02000156
:1004E400031C0130A002F30D0730FC00730DF80D5E
:1004F400F90DFA0DFB0DA00D7408731C932AF80274
:100504007508031C750FF9027608031C760FFA02AE
:100514007708031C770FFB020001031C0130A002C3
:10052400A42AF80775080318750FF9077608031845
:10053400760FFA0777080318770FFB0700010318F3
:100544000130A007F30DFC0B782A720DF80DF90D9C
:10055400FA0DFB0DA00D7408731CC22AF80275086D
:10056400031C750FF9027608031C760FFA0277084C
:10057400031C770FFB020001031C0130A002D32AE5
:10058400F80775080318750FF90776080318760F2E
:10059400FA0777080318770FFB07000103180130E7
:1005A400A007F20D0730FC00720DF80DF90DFA0DDD
:1005B400FB0DA00D7408721CF12AF8027508031CC7
:1005C400750FF9027608031C760FFA027708031CEC
:1005D400770FFB020001031C0130A002022BF80775
:1005E40075080318750FF90776080318760FFA07CC
:1005F40077080318770FFB07000103180130A007E1
:10060400F20DFC0BD62A710DF80DF90DFA0DFB0D48
:10061400A00D7408721C202BF8027508031C750FBA
:10062400F9027608031C760FFA027708031C770F89
:10063400FB020001031C0130A002312BF8077508EE
:100644000318750FF90776080318760FFA07770869
:100654000318770FFB07000103180130A007F10D01
:100664000730FC00710DF80DF90DFA0DFB0DA00D0E
:100674007408711C4F2BF8027508031C750FF902DE
:100684007608031C760FFA027708031C770FFB0227
:100694000001031C0130A002602BF8077508031841
:1006A400750FF90776080318760FFA077708031809
:1006B400770FFB07000103180130A007F10DFC0BB5
:1006C400342B700DF80DF90DFA0DFB0DA00D740807
:1006D400711C7E2BF8027508031C750FF90276084D
:1006E400031C760FFA027708031C770FFB02000144
:1006F400031C0130A0028F2BF80775080318750F2F
:10070400F90776080318760FFA0777080318770FA6
:10071400FB07000103180130A007F00D0730FC00AF
:10072400700DF80DF90DFA0DFB0DA00D7408701C79
:10073400AD2BF8027508031C750FF9027608031C2B
:10074400760FFA027708031C770FFB020001031CE3
:100754000130A002BE2BF80775080318750FF907BE
:1007640076080318760FFA0777080318770FFB0744
:10077400000103180130A007F00DFC0B922B701838
:10078400D12B7408F80775080318750FF907760854
:100794000318760FFA0777080318770FFB0708008A
:1007A4008312A401673083168F00073083129900E7
:1007B400123083169F000A3085000F3081009501A6
:1007C4008B1596158312C001C101C201C3014330C8
:1007D400A5000B30A600A701A801831605128312F9
:1007E40005168316851283128516E430B3000C3087
:1007F400B400B501B6011030C6000E30C700C80100
:10080400C901BA30CA001330CB00CC01CD01A90113
:10081400051405110130A4000330A900A9013230E8
:10082400D500D601E6261430A200D0018B2770082B
:100834008312AB007008013AFF3003190030F10055
:100844002408013AFF30031D0030F0007108F00560
:1008540003192D2C6126F430D5000130D600E6268C
:100864005B27F430D5000130D600E626E3253008B6
:100874003602031D472C2F083502031D472C2E0872
:100884003402031D472C2D08330203184A2C05108B
:0E089400A301A101C401C5016400CA2408002B
:1008A20001308312D6008030D700D80100305806BC
:1008B200031D5D2C003057060319942CB027B02776
:1008C200B027B027962783168512B027B027831248
:1008D20057085505F10000305805F2000030720645
:1008E200031D752C0030710603197A2C8316051628
:1008F2007D2CA02783160512B027B02785168312F8
:100902002A10851A882C2A1C872C882C822C57089E
:10091200F0005808F100F10CF00CF1137008D70048
:100922007108D800572CD601B027B0279627831616
:100932008512B027B0270516B027B027B027B027F9
:10094200851683122A10851AAA2C2A1CA92CAA2CD5
:10095200A42CD601B027B027051EB02C5614B02700
:10096200B027B027B027B027B027B027B027B027CD
:10097200B027B027B027B027B027B027B0279627D7
:1009820083168512A0278316051283125608F000DB
:0209920008005B
:10099400831230083602031DD92C2F083502031D9B
:1009A400D92C2E083402031DD92C2D083302031C24
:1009B400F52C0511F430D5000130D600E6260130BF
:1009C400B20005156430D500D601E6260511643061
:1009D400D500D601E62664003208063A0319F42C41
:1009E400B20AE32C352D30083602031D032D2F08DF
:1009F4003502031D032D2E083402031D032D2D087B
:100A04003302FF3003180030F10030084902031D9F
:100A1400152D2F084802031D152D2E084702031D0E
:100A2400152D2D084602FF30031C0030F00071081C
:100A3400F0050319352DF430D5000130D600E62633
:100A44000130B20005156430D500D601E626051143
:100A54006430D500D601E62664003208033A03194F
:080A6400352DB20A242D080013
:100A6C00831205156430D500D601E6266F27D030E9
:100A7C008312D50051240130D50051246F27D13079
:100A8C008312D50051240130D000D1018F2570087C
:100A9C00CE004E08B9004E08F000F00CF013F00C2C
:100AAC00F013F00CF013F00CF0130A30F4004227A2
:100ABC000F304E05F10071087007B8000130D000FE
:100ACC00D1018F257008CE004E08B9004E08F000F9
:100ADC00F00CF013F00CF013F00CF013F00CF0130E
:100AEC000A30F40042270F304E05F10071087007F0
:100AFC00B700D001D1018F257008B90007307005FF
:100B0C00B100272764308312D500D601E6260511E3
:020B1C000800CF
:100B1E008312D2018030D300D40100305406031D5D
:100B2E009A2D003053060319B92DB027B02783161E
:100B3E000516B027B027851683122A10851AAB2DFD
:100B4E002A1CAA2DAB2DA52D051EAF2D5308D204A0
:100B5E00B027B0279627831685128312D40CD30C98
:100B6E00D413942D83160516B027B02700308312A8
:100B7E005106031DC42D003050060319C92DA027A0
:100B8E00831605128316B027B027851683122A10F6
:100B9E00851AD52D2A1CD42DD52DCF2DB027B027B3
:100BAE00962783168512B027B027A0278316051225
:080BBE0083125208F000080048
:100BC6008312D101D2010130D0000130D500902628
:100BD6007008D10771080318013ED2070130D5000D
:100BE600D601E6265008403A0319FB2DD00AE82D17
:100BF6000630F2005108F0005208F100720803199D
:100C0600092EF10CF00CF113FF3E022E0030F2001B
:100C1600F3004A08F4004B08F5004C08F6004D08AE
:100C2600F7002A260A30F4007008AD007108AE00FD
:100C36007208AF007308B00074080319292EB00CAF
:0E0C4600AF0CAE0CAD0CB013FF3E202E08001C
:100C5400831203132230FC00F801F901FA01FB01AD
:100C6400FC030319602E0310FB0CFA0CF90CF80CAE
:100C7400F30CF20CF10CF00C031C322EFC030319E0
:100C8400522E7408F80775080318750FF9077608CB
:100C94000318760FFA0777080318770FFB07362E29
:100CA4007408F80775080318750FF9077608031810
:0E0CB400760FFA0777080318770FFB07080082
:100CC200831205156430D500D601E6267F276430ED
:100CD200D500D601E6266F27D0308312D5005124E5
:100CE200D5015124D50151240530D50051240430B9
:100CF200D50051240130D50051243030D500512483
:100D02000330D50051242630D500512427278312E1
:0E0D1200D5010130D600092783120511080013
:100D2000C33083129F05F0309F05BF309F05F03020
:100D300083169F0483129F175508F000F00D701062
:100D4000F00D701070089F041F14AA279F149F1C99
:100D5000AB2E0000A72E1F101E08F100F001831615
:100D60001E0870048312D6007108D7000030D70423
:0A0D70005608F0005708F1000800D3
:100D7A0083124E08003A031DC92E05153230D500DC
:100D8A00D601E6260511E02E0130CF004F084E02AB
:100D9A00031CE02E0515FA30D500D601E62605110A
:100DAA00FA30D500D601E62664004F084E0603192C
:100DBA00E02ECF0ACB2EE830D5000330D600E62647
:020DCA0008001F
:100DCC0001308312F100F20172085602031DF02E5D
:100DDC0071085502031C082F0230FC004430FD0042
:100DEC00FD0BF62EFC0BF62E000064007208560666
:100DFC00031D022F550871060319082FF10A031958
:060E0C00F20AEA2E0800C4
:100E120083169C1C0E2F0000092F8312550883167F
:100E22009B008312560883169A009C131C150B080C
:100E3200F0008B1355309D00AA309D009C14F01BCE
:0C0E4200242F8B13252F8B171C11080088
:100E4E00A02783160512B027B027851683122A1005
:100E5E00851A352F2A1C342F352F2F2FB027B02768
:100E6E00B027B027B027B027B027B02783160516B6
:060E7E00B027B0270800B8
:100E8400831203137008F100F0010830FC007108AC
:100E9400F40C0318512FFC0B4A2FF10100340310FA
:100EA400562FF40C0318F107F10CF00CFC0B532F24
:020EB400080034
:100EB60001308312B2000515FA30D500D601E626B8
:100EC6000511FA30D500D601E6263208033A031991
:080ED6006E2FB20A5E2F080026
:100EDE0083160516B027B0278516B027B027A02792
:100EEE0083160512B027B0279627831685120800A1
:100EFE0083160516851683122A10851A8A2F2A1C28
:080F0E00892F8A2F842F0800AF
:100F16008312500883169B009C131C141A08F100B8
:060F26007108F000080054
:100F2C0005308400000800088312F000F0127008ED
:040F3C008000080029
:100F400005308400000800088312F0007012700859
:040F50008000080015
:0C0F540007308312FD00FD0BAD2F0800DC
:040F60000000080085
:02400E00CC03E1
:00000001FF
