:02000000EF2BE4
:1000060005308400000800088312F00070127008A2
:04001600800008005E
:04001A0000000800DA
:0C001E0007308312FD00FD0B12280800C3
:10002A0005308400000800088312F000F0127008FE
:04003A00800008003A
:10003E0001308312F100F20172085702031D2928C4
:10004E0071085602031C41280230FC004430FD00AA
:10005E00FD0B2F28FC0B2F2800006400720857069A
:10006E00031D3B285608710603194128F10A03198E
:06007E00F20A232808002D
:1000840001308312D3008030D400D50100305506EE
:10009400031D4E2800305406031985280D200D2019
:1000A4000D200D201520831685120D200D2083129E
:1000B40054085205F10000305505F2000030720674
:1000C400031D66280030710603196B288316051674
:1000D4006E280320831605120D200D208516831229
:1000E4002C10851A79282C1C782879287328540810
:1000F400F0005508F100F10CF00CF1137008D40075
:100104007108D5004828D3010D200D201520831631
:1001140085120D200D2005160D200D200D200D201B
:10012400851683122C10851A9B282C1C9A289B2830
:100134009528D3010D200D20051EA12853140D2050
:100144000D200D200D200D200D200D200D200D2043
:100154000D200D200D200D200D200D200D2015202B
:100164008316851203208316051283125308F000A8
:02017400080081
:10017600C33083129F05F0309F05BF309F05F030D6
:1001860083169F0483129F175208F000F00D70101B
:10019600F00D701070089F041F140F209F149F1CF1
:1001A600D6280000D2281F101E08F100F001831681
:1001B6001E0870048312D3007108D4000030D404E2
:0A01C6005308F0005408F10008008F
:1001D0000320831605120D200D20851683122C1086
:1001E000851AF6282C1CF528F628F0280D200D205D
:1001F0000D200D200D200D200D200D20831605163D
:060200000D200D20080096
:10020600831203132230FC00F801F901FA01FB0105
:10021600FC03031939290310FB0CFA0CF90CF80C32
:10022600F30CF20CF10CF00C031C0B29FC03031964
:100236002B297408F80775080318750FF90776084F
:100246000318760FFA0777080318770FFB070F29AD
:100256007408F80775080318750FF9077608031868
:0E026600760FFA0777080318770FFB070800DA
:1002740083169C1C3F2900003A29831252088316D6
:100284009B008312530883169A009C131C150B08B9
:10029400F0008B1355309D00AA309D009C14F01B78
:0C02A40055298B1356298B171C110800DC
:1002B00083160516851683122C10851A63292C1CAB
:0802C000622963295D29080091
:1002C80001308312B20032085202031C7D29051541
:1002D8005308D6005408D7001F2005115308D6002C
:1002E8005408D7001F203208520603197D29B20A84
:0402F800672908006A
:1002FC00831605160D200D2085160D200D200320CC
:10030C00831605120D200D2015208316851208006A
:10031C00831243083102031D9D2942083002031D3C
:10032C009D2941082F02031D9D2940082E02031C04
:10033C00AC290511F430D6000130D7001F2006304F
:10034C00D2006430D300D4016421DF294308310288
:10035C00031DBA2942083002031DBA2941082F0295
:10036C00031DBA2940082E02FF3003180030F1009B
:10037C0043083702031DCC2942083602031DCC2941
:10038C0041083502031DCC2940083402FF30031C00
:10039C000030F0007108F0050319DF29F430D600A5
:1003AC000130D7001F200330D2006430D300D401B9
:0403BC0064210800B0
:1003C0008312CE01CF010130CD000130D200BB201D
:1003D0007008CE0771080318013ECF070130D60020
:1003E000D7011F204D08403A0319F829CD0AE52905
:1003F0000630F2004E08F0004F08F10072080319B1
:10040000062AF10CF00CF113FF3EFF290030F20038
:10041000F3004608F4004708F5004808F6004908CC
:10042000F70003210A30F4007008C0007108C10011
:100430007208C2007308C30074080319262AC30C8B
:0E044000C20CC10CC00CC313FF3E1D2A0800E5
:10044E0083124D08003A031D332A05153230D600AB
:10045E00D7011F2005114A2A0130CE004E084D0249
:10046E00031C4A2A0515FA30D600D7011F200511A4
:10047E00FA30D600D7011F2064004E084D0603192E
:10048E004A2ACE0A352AE830D6000330D7001F207C
:02049E00080054
:1004A000831205156430D600D7011F20582164300F
:1004B000D600D7011F207E21D0308312D2004220E7
:1004C000D2014220D20142200530D2004220043025
:1004D000D20042200130D20042203030D2004220EF
:1004E0000330D20042202630D2004220E82083127E
:0E04F000D2010130D3003A2183120511080019
:1004FE008312CF018030D000D10100305106031D90
:10050E008A2A003050060319A92A0D200D208316C1
:10051E0005160D200D20851683122C10851A9B2A88
:10052E002C1C9A2A9B2A952A051E9F2A5008CF0416
:10053E000D200D201520831685128312D10CD00CA0
:10054E00D113842A831605160D200D200030831238
:10055E004E06031DB42A00304D060319B92A032096
:10056E008316051283160D200D20851683122C106E
:10057E00851AC52A2C1CC42AC52ABF2A0D200D2077
:10058E001520831685120D200D20032083160512CB
:08059E0083124F08F000080071
:1005A60083124D0883169B009C131C141A08F10035
:0605B6007108F0000800CE
:1005BC00831203137008F100F0010830FC0071087D
:1005CC00F40C0318ED2AFC0BE62AF101003403109D
:1005DC00F22AF40C0318F107F10CF00CFC0BEF2AC7
:0205EC00080005
:1005EE00831205157E21E82001308312D600D70133
:1005FE001F207E21D0308312D20042200130D20043
:10060E0042207E21D1308312D20042200130CD0013
:10061E00CE017F227008CA004A08A3004A08F000E3
:10062E00F00CF013F00CF013F00CF013F00CF013C0
:10063E000A30F400DE220F304A05F100710870070F
:10064E00A0000130CD00CE017F227008A3003F3004
:10065E007005CA004A08A3004A08F000F00CF01317
:10066E00F00CF013F00CF013F00CF0130A30F40051
:10067E00DE220F304A05F10071087007A100CD018E
:10068E00CE017F227008A30007307005A400E82079
:0E069E0001308312D600D7011F20051108007D
:1006AC008312CC014B084502031D5E2B4A08440201
:1006BC00031C682B4A08C402031CC5034B08C50263
:0C06CC00CC0A582B4C08CD002722080057
:1006D8008312B301673083168F00073083129900A5
:1006E800123083169F000A3085000F308100950173
:1006F8008B1596158312BC01BD01BE01BF014330A5
:10070800B8000B30B900BA01BB0183160512831279
:1007180005168316851283128516E430AE000C3058
:10072800AF00B001B1011030B4000E30B500B60111
:10073800B701BA30C6001330C700C801C901AD01FE
:10074800051405110130B3000330AD00AD0132309E
:10075800D600D7011F201430A700CD01D32270087E
:100768008312A6007008013AFF3003190030F10027
:100778003308013AFF30031D0030F0007108F0051E
:100788000319C72B5022F430D6000130D7001F20A0
:100798000330D200FA30D300D4016421F430D600FB
:1007A8000130D7001F20E02143083102031DE62B4A
:1007B80042083002031DE62B41082F02031DE62BD9
:1007C80040082E020318E92B0510A501AB01A90169
:0607D800AA018E210800B9
:1007DE006C230B1CF52B0508A8000B1085193D2D5D
:1007EE00A2018519FC2B7514FD2B751032302202D7
:1007FE00FF3003180030F100F0017518F00A71088F
:10080E00F00503191A2C6430D600D7011F20A20A56
:10081E0022080A3A031D142C05152208193A031D45
:10082E00192C0511F82B0A302202FF30031C003060
:10083E00F10019302202FF3003180030F000710869
:10084E00F00503195B2C0511E0210514D030D600FC
:10085E000730D7001F2043083102031D402C4208E9
:10086E003002031D402C41082F02031D402C40086E
:10087E002E020318432C0510051137084302031DE1
:10088E00522C36084202031D522C35084102031D1C
:10089E00522C340840020318552C8E21A901AA01AE
:1008AE00BC01BD01BE01BF0119302202FF30031C85
:1008BE000030F10032302202FF3003180030F00019
:1008CE007108F0050319B92C0511E021E830D600A6
:1008DE000330D7001F204008C4004108C500E8308F
:1008EE00CA000330CB0056236430CA00CB01562316
:1008FE000A30CA00CB015623CD0127223308013A14
:10090E00031DB92CE830D6000330D7001F2002306B
:10091E00D2006430D300D4016421F722051564306F
:10092E00D600D7011F200511E830D6000330D700BE
:10093E001F202108C400C5010A30CA00CB0156236E
:10094E004408CD002722E830D6000330D7001F2000
:10095E002008C400C5010A30CA00CB015623440842
:10096E00CD00272232302202031C3D2D051401300A
:10097E00B200043085066430D600D7011F2032083D
:10098E00143A0319CC2CB20AC02C0511FF30A50065
:10099E002508FF3A031D112D0515F430D600013040
:1009AE00D7001F20051185190A2DA2018519E12CEA
:1009BE007514E22C751032302202FF30031800300D
:1009CE00F100F0017518F00A7108F0050319F52C05
:1009DE006430D600D7011F20A20ADD2C323022024D
:1009EE00031C092DA5010130B200043085066430C8
:1009FE00D600D7011F203208143A0319082DB20A67
:100A0E00FC2C05110F2DF430D6000130D7001F201D
:100A1E006400CF2CE02143083102031D202D420833
:100A2E003002031D202D41082F02031D202D4008EA
:100A3E002E020318232D051037084302031D312DF6
:100A4E0036084202031D312D35084102031D312D9A
:100A5E00340840020318342D8E210D30A900AA014E
:100A6E00BC01BD01BE01BF01A70164002508003A0B
:100A7E00031D132E00302A02031D472D0D302902AF
:100A8E00031C0C2EE02143083102031D582D420891
:100A9E003002031D582D41082F02031D582D40080A
:100AAE002E02031C5B2D051437084302031D692D0E
:100ABE0036084202031D692D35084102031D692DBA
:100ACE0034084002031C6C2D0510A901AA0133083D
:100ADE00013A031D732DA70A2D08003C0318C72DDC
:100AEE003C08F0003D08F1003E08F2003F08F3001C
:100AFE00F00A0319F10A0319F20A0319F30A70082E
:100B0E00BC007108BD007208BE007308BF00380833
:100B1E00F0003908F1003A08F2003B08F3002D0806
:100B2E00F400F501F601F701032173083F02031DDE
:100B3E00AA2D72083E02031DAA2D71083D02031D47
:100B4E00AA2D70083C02031CC72D0514D030D60008
:100B5E000730D7001F2043083102031DC02D420865
:100B6E003002031DC02D41082F02031DC02D400869
:100B7E002E020318C32D0510BC01BD01BE01BF011D
:100B8E0014302702031C0C2EF7222108043AFF30E2
:100B9E00031D0030F1000B302002FF30031800302F
:100BAE00F0007108F00503190A2E2B08003A031DF8
:100BBE00092E2408013AFF30031D0030F1002408ED
:100BCE00043AFF30031D0030F0007108F0040319E1
:100BDE00092E05141030D6002730D7001F204308E9
:100BEE003102031D042E42083002031D042E41085B
:100BFE002F02031D042E40082E020318072E051087
:100C0E000130AB000B2EAB01A701A90A0319AA0AEA
:100C1E00640063000000172E6430D600D7011F2039
:040C2E00F02B182E61
:02400E00CC03E1
:00000001FF
