:02000000BF2B14
:0C00060007308312FD00FD0B06280800E7
:0400120000000800E2
:100016008312F101F2014E087202031D14284D08E5
:100026007102031824280230FC004430FD00FD0B49
:100036001A28FC0B1A2800006400F10A0319F20AB8
:040046000E28080078
:10004A0005308400000800088312F000701270085E
:04005A00800008001A
:10005E0005308400000800088312F000F0127008CA
:04006E008000080006
:1000720001308312CB000030CC008030C900CA01AD
:1000820049084A0403196E28092009200920092079
:100092002F2083168512092009208312490848055A
:1000A200F00000304A05F1007008710403195C2861
:1000B200831605165F2825208316051209200920BC
:1000C20085168312A711851A6A28A71D69286A282E
:1000D2006428CA0CC90CCA134128CB01CC010920DF
:1000E20009202F20831685120920092005160920D0
:1000F20009200920092085168312A711851A85284F
:10010200A71D842885287F28CB01CC01092009203E
:10011200051E8C284B1409200920092009200920DA
:100122000920092009200920092009200920092085
:100132000920092009202F208316851225208316E5
:0A014200051283124B08F0000800BC
:10014C00831203132230FC00F801F901FA01FB01C0
:10015C00FC030319DC280310FB0CFA0CF90CF80C4B
:10016C00F30CF20CF10CF00C031CAE28FC0303197D
:10017C00CE287408F80775080318750FF907760868
:10018C000318760FFA0777080318770FFB07B228C6
:10019C007408F80775080318750FF9077608031823
:0E01AC00760FFA0777080318770FFB07080095
:1001BA008312AB0148082B020318F12805154908D8
:1001CA00CD004A08CE000B2005114908CD004A0887
:0A01DA00CE000B20AB0ADF2808005E
:1001E40083160516092009208516092009202520D3
:1001F40083160512092009202F2083168512080072
:10020400C33083129F05F0309F052009F000700869
:100214009F05F03083169F0483129F174808F0004F
:10022400F00D7010F00D701070089F041F1403205F
:100234009F149F1C1F2900001B291F101E08F1007A
:0E024400F00183161E08F0040030F1040800DB
:100252002520831605120920092085168312A7116D
:10026200851A3729A71D362937293129092009205E
:1002720009200920092009200920092083160516D2
:060282000920092008001C
:100288008316851605168312A711851A4F29A71DEF
:080298004E294F2949290800F5
:1002A0008312C301C401C501C601C201403042022C
:1002B00003187E290130C80002210030F200F3004B
:1002C00083124308F00744080318440FF107450858
:1002D0000318450FF20746080318460FF307700886
:1002E000C3007108C4007208C5007308C60001305D
:1002F000CD000030CE000B20C20A56290630F40093
:100300004308F0004408F1004508F2004608F300F5
:10031000740803199229F30CF20CF10CF00CF3138E
:10032000FF3E89290030F200F3003208F400330860
:10033000F500F601F701A6200A30F8007008F40075
:100340007108F5007208F6007308F70078080319C1
:10035000B029F70CF60CF50CF40CF713FF3EA729A7
:0A0360007408A9007508AA0008003F
:10036A0083122A083102031DBC2929083002031C02
:10037A00CC290511F430CD000130CE000B20063017
:10038A00C8006430C9000030CA00DD20E8292A0804
:10039A003102031DD229290830020318E8292A0844
:1003AA002F02031DDA2929082E02031CE829F4303A
:1003BA00CD000130CE000B200330C8006430C900E4
:0803CA000030CA00DD2008002C
:1003D20083124208003A031DF62905153230CD007A
:1003E2000030CE000B200511082AC3014208430247
:1003F2000318082A0515FA30CD00CE010B2005118D
:10040200FA30CD00CE010B206400C30AF729E83090
:0A041200CD000330CE000B200800DF
:0C041C0083123E088A003D0882000800A0
:10042800831203137008F100F0010830FC00710812
:10043800F40C0318232AFC0B1C2AF10100340310C6
:10044800282AF40C0318F107F10CF00CFC0B252AF0
:0204580008009A
:10045A008312C401C5018030C6000030C7004608B7
:10046A0047040319572A092009208316051609206B
:10047A00092085168312A711851A472AA71D462A1D
:10048A00472A412A051E4D2A4608C4044708C504BE
:10049A00092009202F20831685128312C70CC60C47
:1004AA00C713342A83160516092009208312420825
:1004BA0043040319632A252083160512831609208B
:1004CA00092085168312A711851A6F2AA71D6E2A7D
:1004DA006F2A692A092009202F20831685120920EC
:1004EA00092025208316051283124408F00008000B
:1004FA00831205156430CD000030CE000B20442154
:10050A006430CD000030CE000B20F220D0308312B0
:10051A00C8003920C8013920C80139204708C80055
:10052A0039204608C80039204208C8003920430843
:10053A00C80039204408C80039204508C8003920B5
:10054A00292120308312CD000330CE000B20051163
:0C055A00F430CD000130CE000B20080072
:100566008312C10140082D02031DBB2A3F082C023D
:10057600031CC52A3F08AC02031CAD034008AD02AC
:0C058600C10AB52A4108C200E9210800A2
:100592000E228A110A128000840ABD0A0319BE0AB9
:0805A200F003031DC92A080043
:1005AA0083120515F220292101308312CD00003073
:1005BA00CE000B20F220D0308312C800392001303F
:1005CA00C8003920F220D1308312C8003920013006
:1005DA00C2000030C3002D227008BF003F08B700D8
:1005EA003F08F000F00CF013F00CF013F00CF013CD
:1005FA00F00CF0130A30F40014220F303F05F1001A
:10060A0071087007B5000130C2000030C3002D2206
:10061A007008B7003F307005BF003F08B7003F08B9
:10062A00F000F00CF013F00CF013F00CF013F00CD7
:10063A00F0130A30F40014220F303F05F10071085C
:10064A007007B600C201C3012D227008B700073037
:10065A007005B400292101308312CD000030CE008C
:06066A000B200511080041
:1006700083122710673083168F000730831299008A
:10068000123083169F000A3085000F3081009501DB
:100690008B1596158312A301A401A501A601433071
:1006A000A1000B30A2002711831605128312051634
:1006B0008316851283128516E430B0000C30B10029
:1006C0001030AE000E30AF00BA30B2001330B300BD
:1006D0000330A800051405112710A710271C9B2B19
:1006E0001430B900A801B8018519822B0F303802E7
:1006F0000318822B05156430CD000030CE000B208E
:10070000B80A742B38080F3A031D9B2B05110130D2
:10071000C2003030C3000330C4002630C5000430AE
:10072000C6000530C7007D220A30C8006430C90009
:100730000030CA00DD200511F430CD000130CE00BC
:100740000B200330C800FA30C900CA01DD20F430A4
:10075000CD000130CE000B2050212A083102031DAC
:10076000B32B290830020318B82B05102711B92B19
:0E07700027152712A712BB01BC01B5210800F6
:10077E008C2538230B1CC62B0508BA000B108519C7
:10078E00BF2CB8018519E02B323038020318E02B4C
:10079E006430CD000030CE000B20B80A38080A3A7B
:1007AE00031DDA2B05153808193A031DDF2B051129
:1007BE00C92B0A303802031C0C2C193038020318CE
:1007CE000C2C051150210514D030CD000730CE0071
:1007DE000B202A083102031DF62B290830020318BC
:1007EE00FB2B05102711FC2B271505112F082A02AC
:1007FE00031D032C2E0829020318062CB521BB015C
:10080E00BC01A301A401A501A60119303802031CE5
:10081E00662C323038020318662C05115021E83050
:10082E00CD000330CE000B202908AC002A08AD0005
:10083E00E830BF000330C000B3226430BF00003088
:10084E00C000B3220A30BF000030C000B322C20184
:10085E00E921271C662CE830CD000330CE000B209A
:10086E000230C8006430C9000030CA00DD20D52235
:10087E0005156430CD000030CE000B200511E83098
:10088E00CD000330CE000B203608AC00AD010A308F
:10089E00BF000030C000B3222C08C200E921E830AE
:1008AE00CD000330CE000B203508AC00AD010A3070
:1008BE00BF000030C000B3222C08C200E921323044
:1008CE003802031CBF2C05140A30C8006430C9005E
:1008DE000030CA00DD202716271E992C0515F4308E
:1008EE00CD000130CE000B2005118519922CB801D8
:1008FE0085198C2C3230380203188C2C6430CD00C4
:10090E000030CE000B20B80A7F2C32303802031C88
:10091E00912C2712972CF430CD000130CE000B20F5
:10092E006400732C0A30C8006430C9000030CA005D
:10093E00DD2050212A083102031DA72C2908300280
:10094E000318AC2C05102711AD2C27152F082A02E1
:10095E00031DB32C2E0829020318B62CB5210D3019
:10096E00BB000030BC00A301A401A501A601B90182
:10097E00271A7E2D00303C02031DC72C0D303B0282
:10098E00031C772D50212A083102031DD02C290873
:10099E003002031CD42C051427152F082A02031D20
:1009AE00DA2C2E082902031CDE2C05102711BB01A0
:1009BE00BC01271CE52CA801B90AE72CB901A71028
:1009CE002808003C0318342D2308F0002408F100F9
:1009DE002508F2002608F300F00A0319F10A03199C
:1009EE00F20A0319F30A7008A3007108A400720832
:1009FE00A5007308A6002108F0002208F100F201FC
:100A0E00F3012808F400F501F601F701A62073089A
:100A1E002602031D1C2D72082502031D1C2D7108B4
:100A2E002402031D1C2D70082302031C342D0514F3
:100A3E00D030CD000730CE000B202A083102031D26
:100A4E002A2D2908300203182F2D05102711302DBD
:100A5E002715A301A401A501A60114303902031C18
:100A6E00772DD522A7185F2D3608043A031D5D2D6C
:100A7E00A71A5C2D3408013A03194A2D3408043A9A
:100A8E0003194A2D5C2D05141030CD002730CE00F1
:100A9E000B202A083102031D562D29083002031897
:100AAE005B2D27195B2D0510A7165E2DA712762D2F
:100ABE0007303602031C752D0D3036020318752DC6
:100ACE002A083102031D6D2D290830020318732DDB
:100ADE002719732D0510742D0514762D0514B901E3
:100AEE00BB0A0319BC0A640063000000842D643045
:0E0AFE00CD000030CE000B206400C12B852DF2
:100B18002030840001308312F0008B30BD00053096
:060B2800BE00C922080016
:020B1600403469
:02400E00CC03E1
:00000001FF
