:02000000DA2BF9
:0C00060007308312FD00FD0B06280800E7
:0400120000000800E2
:1000160001308312F1000030F20072084D02031D18
:10002600162871084C02031C27280230FC004330B6
:10003600FD00FD0B1C28FC0B1C28000000006400C2
:0A004600F10A0319F20A102808005D
:1000500005308400000800088312F0007011700859
:040060008000080014
:1000640005308400000800088312F0007010700846
:040074008000080000
:1000780001308312CA000030CB008030C800C901AB
:100088004808490403197128092009200920092072
:1000980032208316051009200920831248084705D5
:1000A800F00000304905F1007008710403195F2859
:1000B80083160515622828208316051109200920B2
:1000C80005148312211005186D28211C6C286D2831
:1000D8006728C90CC80CC9134428CA01CB010920D8
:1000E800092032208316051009200920051509204A
:1000F80009200920092005148312211005188828D1
:10010800211C872888288228CA01CB0109200920B8
:10011800051D8F284A1409200920092009200920D3
:10012800092009200920092009200920092009207F
:10013800092009200920322083160510282083165B
:0A014800051183124A08F0000800B8
:10015200831203132230FC00F801F901FA01FB01BA
:10016200FC030319DF280310FB0CFA0CF90CF80C42
:10017200F30CF20CF10CF00C031CB128FC03031974
:10018200D1287408F80775080318750FF90776085F
:100192000318760FFA0777080318770FFB07B528BD
:1001A2007408F80775080318750FF907760803181D
:0E01B200760FFA0777080318770FFB0708008F
:1001C00001308312AA002A084702031CF52885166D
:1001D0004808CC004908CD000B2085124808CC0007
:0C01E0004908CD000B20AA0AE328080003
:1001EC00831605150920092005140920092028204B
:1001FC0083160511092009203220831605100800EA
:10020C00C33083129F05F0309F052009F000700861
:10021C009F05F03083169F0483129F174708F00048
:10022C00F00D7010F00D701070089F041F14032057
:10023C009F149F1C232900001F291F101E08F1006A
:0E024C00F00183161E08F0040030F1040800D3
:10025A00282083160511092009200514831221106C
:10026A0005183B29211C3A293B293529092009204F
:10027A0009200920092009200920092083160515CB
:06028A0009200920080014
:100290008316051405158312211005185329211CF6
:0802A000522953294D290800E1
:1002A8008312C201C301C401C5010130C100410864
:1002B800403C031C83290130C70006210030F200AE
:1002C800F30083124208F00743080318430FF107AD
:1002D80044080318440FF20745080318450FF307AD
:1002E8007008C2007108C3007208C4007308C50012
:1002F8000130CC000030CD000B20C10A5B2906304C
:10030800F4004208F0004308F1004408F2004508F0
:10031800F300740803199729F30CF20CF10CF00C94
:10032800F313FF3E8E290030F200F3003108F40089
:100338003208F500F601F701A9200A30F800700824
:10034800F4007108F5007208F6007308F7007808E1
:100358000319B529F70CF60CF50CF40CF713FF3E4E
:0C036800AC297408B3007508B40008004C
:10037400831234083002031DC12933082F02031CE1
:10038400D1298512F430CC000130CD000B20063089
:10039400C7006430C8000030C900E020ED293408EB
:1003A4003002031DD72933082F020318ED2934081E
:1003B4002302031DDF2933082202031CED29F43034
:1003C400CC000130CD000B200330C7006430C800DE
:0803D4000030C900E020080020
:1003DC0083124108003A031DFB2985163230CC00EC
:1003EC000030CD000B2085120E2A0130C2004208CD
:1003FC004102031C0E2A8516FA30CC00CD010B20CD
:10040C008512FA30CC00CD010B206400C20AFD2904
:0C041C00E830CC000330CD000B200800BD
:0C04280083122E088A002D0882000800B4
:10043400831203137008F100F0010830FC00710806
:10044400F40C0318292AFC0B222AF10100340310AE
:100454002E2AF40C0318F107F10CF00CFC0B2B2AD8
:0204640008008E
:100466008312C301C4018030C5000030C6004508B0
:10047600460403195D2A092009208316051509205B
:10048600092005148312211005184D2A211C4C2A17
:100496004D2A472A051D532A4508C3044608C404A5
:1004A600092009203220831605108312C60CC50CBC
:1004B600C6133A2A83160515092009208312410816
:1004C60042040319692A2820831605118316092078
:1004D60009200514831221100518752A211C742A77
:1004E600752A6F2A09200920322083160510092053
:1004F600092028208316051183124308F0000800FE
:10050600831285166430CC000030CD000B204821C4
:100516006430CC000030CD000B20F620D0308312A2
:10052600C7003C20C7013C20C7013C204608C70045
:100536003C204508C7003C204108C7003C20420833
:10054600C7003C204308C7003C204408C7003C20A5
:100556002D2120308312CC000330CD000B208512D4
:0C056600F430CC000130CD000B20080068
:100572008312C0013F082C02031DC12A3E082B0230
:10058200031CCB2A3E08AB02031CAC033F08AC029F
:0C059200C00ABB2A4008C100EE2108008E
:10059E0014228A110A128000840AAD0A0319AE0AC7
:0805AE00F003031DCF2A080031
:1005B600831285166430CC000030CD000B20F62067
:1005C6002D210A308312CC000030CD000B20F620FE
:1005D600D0308312C7003C200130C7003C20F620F3
:1005E600D1308312C7003C20C101C20133227008FA
:1005F600BE002D2183123E08F000F00CF013F00C23
:10060600F013F00CF013F00CF0130A30F4001A2279
:100616000F303E05F10071087007B5000A30CC00B6
:100626000030CD000B20F620D0308312C7003C20CE
:100636000230C7003C20F620D1308312C7003C2090
:10064600C101C20133227008BE002D213F30831242
:100656003E05BF003F08BE003F08F000F00CF01357
:10066600F00CF013F00CF013F00CF0130A30F40059
:100676001A220F303F05F10071087007B600851287
:0206860008006A
:100688008312A110673083168F00073083129900F8
:10069800123083169F000A3085000F3081009501C3
:1006A8008B1596158312A601A701A801A90143304D
:1006B800A4000B30A5002111E430AF000C30B000CD
:1006C8001030A2000E30A300BA30B1001330B200CF
:1006D800BB0105168512A110A1110330BB00A11C96
:1006E800B02B831605100511831205140515BB01DF
:1006F800BA0185198B2B0F303A0203188B2B8516FC
:100708006430CC000030CD000B20BA0A7D2B3A08AB
:100718000F3A031DAF2B85120130C1003030C200E3
:100728000330C3002630C4000430C5000530C600BD
:1007380083228512F430CC000130CD000B200A3022
:10074800C7006430C8000030C900E020F430CC0095
:100758000130CD000B20B62B831605140515831226
:10076800051005118512F430CC000130CD000B20A6
:100778000330C700FA30C800C901E020F430CC00CB
:100788000130CD000B20542134083002031DCE2B3C
:1007980033082F020318D32B05122111D42B21154E
:0C07A800A1122112BC01BD01BA21080001
:1007B400BA2544230B1CE12B0508B7000B1085193F
:1007C400ED2CBA018519FB2B32303A020318FB2BAE
:1007D4006430CC000030CD000B20BA0A3A080A3A43
:1007E400031DF52B85163A08193A031DFA2B8512B9
:1007F400E42B0A303A02031C272C19303A0203185E
:10080400272C851254210516D030CC000730CD009A
:100814000B2034083002031D112C33082F02031857
:10082400162C05122111172C2115851223083402C8
:10083400031D1E2C220833020318212CBA21BC01EB
:10084400BD01A601A701A801A90119303A02031CA0
:10085400812C32303A020318812C85125421E8305D
:10086400CC000330CD000B203308AB003408AC00BF
:10087400E830BE000330BF00B9226430BE0000304F
:10088400BF00B9220A30BE000030BF00B922C10146
:10089400EE21A11C812CE830CC000330CD000B20CC
:1008A4000230C7006430C8000030C900E020DB22F9
:1008B40085166430CC000030CD000B208512E83062
:1008C400CC000330CD000B203608AB00AC010A305D
:1008D400BE000030BF00B9222B08C100EE21E83071
:1008E400CC000330CD000B203508AB00AC010A303E
:1008F400BE000030BF00B9222B08C100EE21323007
:100904003A02031CED2C05160130AA002A08143CF7
:10091400031C952C203085066430CC000030CD00BB
:100924000B20AA0A882C8512A116A11ECD2C85168F
:10093400F430CC000130CD000B2085128519C62C73
:10094400BA018519B02C32303A020318B02C643045
:10095400CC000030CD000B20BA0AA32C32303A026E
:10096400031CC52CA1120130AA002A08143C031C44
:10097400C42C203085066430CC000030CD000B2020
:10098400AA0AB72C8512CB2CF430CC000130CD0050
:100994000B206400972C542134083002031DD42CFE
:1009A40033082F020318D92C05122111DA2C211532
:1009B40023083402031DE02C220833020318E32C1D
:1009C400BA210D30BC000030BD00A601A701A8016A
:1009D400A901B9016400A11AAC2D00303D02031D28
:1009E400F52C0D303C02031CA52D54213408300293
:1009F400031DFE2C33082F02031C022D051621159E
:100A040023083402031D082D22083302031C0C2D75
:100A140005122111BC01BD01A11C132DBB01B90A92
:100A2400152DB901A1113B08003C0318622D2608BD
:100A3400F0002708F1002808F2002908F300F00A62
:100A44000319F10A0319F20A0319F30A7008A6003C
:100A54007108A7007208A8007308A9002408F00010
:100A64002508F100F201F3013B08F400F501F60159
:100A7400F701A92073082902031D4A2D72082802D0
:100A8400031D4A2D71082702031D4A2D70082602F2
:100A9400031C622D0516D030CC000730CD000B208E
:100AA40034083002031D582D33082F0203185D2D1E
:100AB400051221115E2D2115A601A701A801A90186
:100AC40014303902031CA52DDB22A1198D2D360803
:100AD400043A031D8B2D211A8A2D3808013A031973
:100AE400782D3808043A0319782D8A2D051610300C
:100AF400CC002730CD000B2034083002031D842D98
:100B040033082F020318892D2119892D0512211666
:100B14008C2D2112A42D07303602031CA32D0D3079
:100B240036020318A32D34083002031D9B2D33080D
:100B34002F020318A12D2119A12D0512A22D05168E
:100B4400A42D0516B901BC0A0319BD0A640063008B
:100B54000000B22D6430CC000030CD000B206400C6
:040B6400DC2BB32DA6
:100B74002030840001308312F000B930AD0005301C
:060B8400AE00CF220800C4
:020B720040340D
:02400E00CC03E1
:00000001FF
