:02000000142CBE
:0C00060007308312FD00FD0B06280800E7
:0400120000000800E2
:1000160001308312F100F20172084C02031D15280B
:1000260071084B02031C2E280230FC004330FD00F1
:10003600FD0B1B28FC0B1B28000000006400720847
:100046004C06031D28284B08710603192E28F10AB1
:080056000319F20A0F2808004B
:10005E0005308400000800088312F000701170084B
:04006E008000080006
:1000720005308400000800088312F0007010700838
:0400820080000800F2
:1000860001308312B50035084702031C5C2885162B
:100096004808CB004908CC000B2085124808CB0045
:1000A6004908CC000B203508470603195C28B50A19
:0400B60046280800D0
:1000BA00831203132230FC00F801F901FA01FB0153
:1000CA00FC03031993280310FB0CFA0CF90CF80C27
:1000DA00F30CF20CF10CF00C031C6528FC03031959
:1000EA0085287408F80775080318750FF907760844
:1000FA000318760FFA0777080318770FFB076928A2
:10010A007408F80775080318750FF90776080318B5
:0E011A00760FFA0777080318770FFB07080027
:100128008316051505148312281105189F28281D04
:080138009E289F289928080069
:1001400001308312C8008030C900CA0100304A065D
:10015000031DAC28003049060319E32809200920B3
:10016000092009203920831605100920092083124F
:1001700049084705F10000304A05F20000307206D8
:10018000031DC428003071060319C92883160515FC
:10019000CC282F208316051109200920051483126D
:1001A00028110518D728281DD628D728D12849086E
:1001B000F0004A08F100F10CF00CF1137008C900CE
:1001C0007108CA00A628C801092009203920831611
:1001D00005100920092005150920092009200920FA
:1001E0000514831228110518F928281DF828F92864
:1001F000F328C80109200920051DFF2848140920FB
:1002000009200920092009200920092009200920A6
:100210000920092009200920092009200920392066
:10022000831605102F208316051183124808F0004D
:020230000800C4
:1002320083160515092009200514092009202F20FD
:10024200831605110920092039208316051008009C
:100252002F20831605110920092005148312281165
:1002620005183729281D362937293129092009205F
:1002720009200920092009200920092083160515D3
:060282000920092008001C
:10028800C33083129F05F0309F05BF309F05F030C3
:1002980083169F0483129F174708F000F00D701013
:1002A800F00D701070089F041F1403209F149F1CEA
:1002B8005F2900005B291F101E08F100F00183165A
:1002C8001E0870048312C8007108C9000030C904F0
:0A02D8004808F0004908F100080092
:1002E200831234082E02031D782933082D02031CC1
:1002F20087298512F430CB000130CC000B20063068
:10030200C7006430C800C9014320AA2934082E025C
:10031200031D8D2933082D02FF3003180030F10030
:1003220034083202031D972933083102FF30031CBF
:100332000030F0007108F0050319AA29F430CB004F
:100342000130CC000B200330C7006430C800C90163
:04035200432008003C
:100356008312C201C3010130C1000130C70044212C
:100366007008C20771080318013EC3070130CB00AD
:10037600CC010B204108403A0319C329C10AB02910
:100386000630F2004208F0004308F1007208031933
:10039600D129F10CF00CF113FF3ECA290030F2000E
:1003A600F3002F08F4003008F500F601F7015D2090
:1003B6000A30F8007008F4007108F5007208F600BB
:1003C6007308F70078080319EF29F70CF60CF50CFB
:1003D600F40CF713FF3EE6297408B3007508B40061
:0203E60008000D
:1003E800831203137008F100F0010830FC00710853
:1003F800F40C0318032AFC0BFC29F1010034031048
:10040800082AF40C0318F107F10CF00CFC0B052A70
:020418000800DA
:10041A0083124108003A031D192A85163230CB008F
:10042A00CC010B208512302A0130C2004208410259
:10043A00031C302A8516FA30CB00CC010B2085121A
:10044A00FA30CB00CC010B206400420841060319A4
:10045A00302AC20A1B2AE830CB000330CC000B201A
:02046A00080088
:10046C008312C3018030C400C50100304506031D52
:10047C00412A003044060319602A092009208316FA
:10048C000515092009200514831228110518522A74
:10049C00281D512A522A4C2A051D562A4408C304E9
:1004AC00092009203920831605108312C50CC40CB1
:1004BC00C5133B2A83160515092009200030831229
:1004CC004206031D6B2A003041060319702A2F20A7
:1004DC00831605118316092009200514831228118F
:1004EC0005187C2A281D7B2A7C2A762A09200920BB
:1004FC00392083160510092009202F208316051199
:08050C0083124308F00008000F
:10051400831285166430CB00CC010B209420643008
:10052400CB00CC010B201921D0308312C700A020AE
:10053400C701A020C701A0204608C700A020450885
:10054400C700A0204108C700A0204208C700A0207F
:100554004308C700A0204408C700A0202921203058
:100564008312CB000330CC000B208512F430CB0077
:080574000130CC000B2008004F
:10057C008312C0013F083702031DC62A3E0836020B
:10058C00031CD02A3E08B602031CB7033F08B7026F
:0C059C00C00AC02A4008C1000D2208005F
:1005A800831285166430CB00CC010B201921292138
:1005B8000A308312CB00CC010B201921D0308312D2
:1005C800C700A0200130C700A0201921D130831214
:1005D800C700A020C101C20136227008BE0029212F
:1005E80083123E08F000F00CF013F00CF013F00C3E
:1005F800F013F00CF0130A30F400F4210F303E052C
:10060800F10071087007A6000A30CB00CC010B205E
:100618001921D0308312C700A0200230C700A020C3
:100628001921D1308312C700A020C101C20136228E
:100638007008BE0029213F3083123E05BF003F08E5
:10064800BE003F08F000F00CF013F00CF013F00CB3
:10065800F013F00CF0130A30F400F4210F303F05CA
:0C066800F10071087007A0008512080066
:100674008312A811673083168F0007308312990004
:10068400123083169F000A3085000F3081009501D7
:100694008B1596158312BA01BB01BC01BD01433011
:1006A400B8000B30B90028120130AC00FF30A900AB
:1006B400A81528100330A700E430AD000C30AE00BC
:1006C4001030B1000E30B2009230AF001330B000E1
:1006D400A701AC012C18702B0512712B051685127D
:1006E400A81DB92B831605100511831205140515D1
:1006F400A701AB018519802B7214812B72100F3066
:100704002B02FF3003180030F100F0017218F00AD8
:100714007108F0050319952B85166430CB00CC01C4
:100724000B20AB0A7C2B2B080F3A031DB82B851228
:100734000630C1000430C2000430C3002630C400B7
:100744002030C5005530C6008A228512F430CB0013
:100754000130CC000B200A30C7006430C800C90146
:100764004320F430CB000130CC000B20BF2B831688
:10077400051405158312051005118512F430CB00FC
:100784000130CC000B200330C700FA30C800C90187
:100794004320F430CB000130CC000B20AB213408D3
:1007A4002E02031DD72B33082D020318E22B2C092C
:1007B400F0007018DF2B0512E02B05162812E32B2E
:0E07C4002816AA01A810A201A30171210800A5
:1007D20083120313FB01FA01F9018030F800F10CD6
:1007E200F00C031CFD2B7408F90775080318750F2C
:1007F200FA070318FB0A0310F01F052C7408FA0706
:1008020075080318750FFB07FB0CFA0CF90CF80CB2
:10081200031CF02B7B08F3007A08F2007908F10040
:060822007808F000080058
:100828003A230B1C1A2C0508A1000B1085195A2D08
:10083800AB018519212C7414222C741032302B0230
:10084800FF3003180030F100F0017418F00A710845
:10085800F00503193F2C6430CB00CC010B20AB0A08
:100868002B080A3A031D392C85162B08193A031D43
:100878003E2C85121D2C0A302B02FF30031C003041
:10088800F10019302B02FF3003180030F000710816
:10089800F00503197D2C8512AB212C18552C051257
:1008A800562C0516D030CB000730CC000B2034086E
:1008B8002E02031D612C33082D0203186C2C2C0901
:1008C800F0007018692C05126A2C051628126D2C78
:1008D8002816851232083402031D742C310833029D
:1008E8000318772C7121A201A301BA01BB01BC0135
:1008F800BD0119302B02FF30031C0030F1003230EB
:100908002B02FF3003180030F0007108F0050319BE
:10091800D92C8512AB21E830CB000330CC000B205A
:100928003308B6003408B700E830BE000330BF0013
:10093800BE226430BE00BF01BE220A30BE00BF0125
:10094800BE22C1010D22A81DD92CE830CB000330EE
:10095800CC000B200230C7006430C800C901432016
:10096800D42285166430CB00CC010B208512E830E8
:10097800CB000330CC000B202008B600B7010A30AA
:10098800BE00BF01BE223608C1000D22E830CB00F0
:100998000330CC000B202608B600B7010A30BE0091
:1009A800BF01BE223608C1000D2232302B02031CC3
:1009B8005A2D2C18E12C0512E22C05160130B50031
:1009C800203085066430CB00CC010B203508143A62
:1009D8000319F02CB50AE42C8512FF30AA002A0866
:1009E800FF3A031D352D8516F430CB000130CC00BD
:1009F8000B20851285192E2DAB018519052D741430
:100A0800062D741032302B02FF3003180030F1002D
:100A1800F0017418F00A7108F0050319192D6430F3
:100A2800CB00CC010B20AB0A012D32302B02031C6A
:100A38002D2DAA010130B500203085066430CB0089
:100A4800CC010B203508143A03192C2DB50A202D9A
:100A58008512332DF430CB000130CC000B2064001C
:100A6800F32CAB2134082E02031D3C2D33082D0234
:100A78000318472D2C09F0007018442D0512452D38
:100A880005162812482D281632083402031D4E2D4B
:100A9800310833020318512D71210D30A200A30132
:100AA800BA01BB01BC01BD01A50164002A08003AD6
:100AB800031DA22E00302302031D642D0D302202D7
:100AC800031C9B2EAB2134082E02031D6D2D330809
:100AD8002D02031C752D2C18732D0512742D051667
:100AE800281632083402031D7B2D31083302031CFB
:100AF800852D2C09F0007018832D0512842D0516FC
:100B08002812A201A301A81D8C2DA701A50A8E2DCC
:100B1800A50128102708003C0318E12D3A08F00029
:100B28003B08F1003C08F2003D08F300F00A031905
:100B3800F10A0319F20A0319F30A7008BA007108D6
:100B4800BB007208BC007308BD003808F000390803
:100B5800F1002708F400F501E92300303D02031DE8
:100B6800BF2D00303C02031DBF2D71083B02031D41
:100B7800BF2D70083A02031CE12D2C18C52D051253
:100B8800C62D0516D030CB000730CC000B2034081A
:100B98002E02031DD12D33082D020318DC2D2C093C
:100BA800F0007018D92D0512DA2D05162812DD2D42
:100BB8002816BA01BB01BC01BD0114302502031C73
:100BC8009B2ED4222818292E2008043A031D272EEC
:100BD800A818262E2408013AFF30031D0030F10022
:100BE8002408043AFF30031D0030F0007108F004B7
:100BF8000319262E2C18022E0512032E0516103066
:100C0800CB002730CC000B2034082E02031D0E2EFB
:100C180033082D02FF3003180030F100281A162E71
:100C28000314172E0310F0010318F00A7108F005D9
:100C38000319252E2C09F0007018242E0512252ED4
:100C48000516A814282EA8109A2E07302002FF3067
:100C5800031C0030F1000D302002FF300318003073
:100C6800F0007108F0050319952E2408013AFF30A9
:100C7800031D0030F1002408023AFF30031D003044
:100C8800F0007008F1042408033AFF30031D003017
:100C9800F0007008F1042408043AFF30031D003006
:100CA800F0007008F1042408053AFF30031D0030F5
:100CB800F0007008F1042408063AFF30031D0030E4
:100CC800F0007008F1042408073AFF30031D0030D3
:100CD800F0007108F0040319942E34082E02031D45
:100CE800772E33082D02FF3003180030F100281A40
:100CF8007F2E0314802E0310F0010318F00A7108E8
:100D0800F00503198F2E2C09F00070188D2E05128E
:100D18008E2E0516942E2C18932E0512942E051639
:100D28009A2E2C18992E05129A2E0516A501A20A9C
:100D38000319A30A640063000000A72E6430CB00E7
:0A0D4800CC010B206400152CA82E2E
:02400E00CC03E1
:00000001FF
