:02000000732B60
:0C00060007308312FD00FD0B06280800E7
:1000120001308312F100F20172085702031D132806
:1000220071085602031C2B280230FC004430FD00EC
:10003200FD0B1928FC0B19280000640072085706F2
:10004200031D25285608710603192B28F10A0319E6
:06005200F20A0D2808006F
:10005800831203132230FC00F801F901FA01FB01B5
:10006800FC03031962280310FB0CFA0CF90CF80CBA
:10007800F30CF20CF10CF00C031C3428FC030319EC
:1000880054287408F80775080318750FF9077608D7
:100098000318760FFA0777080318770FFB07382835
:1000A8007408F80775080318750FF9077608031818
:0E00B800760FFA0777080318770FFB0708008A
:1000C60005308400000800088312F000F012700862
:0400D600800008009E
:1000DA0005308400000800088312F00070127008CE
:0400EA00800008008A
:1000EE00C33083129F05F0309F05BF309F05F0305F
:1000FE0083169F0483129F175308F000F00D7010A3
:10010E00F00D701070089F041F1403209F149F1C85
:10011E00922800008E281F101E08F100F001831691
:10012E001E0870048312D4007108D5000030D50467
:0A013E005408F0005508F100080015
:0401480000000800AB
:10014C0001308312BB003B085302031CBF2805156A
:10015C005408D6005508D700092005115408D600BC
:10016C005508D70009203B0853060319BF28BB0AC2
:04017C00A9280800A6
:100180008312CF01D0010130CE000130D30077209F
:100190007008CF0771080318013ED0070130D60060
:1001A000D70109204E08403A0319D828CE0AC5289D
:1001B0000630F2004F08F0005008F10072080319F1
:1001C000E628F10CF00CF113FF3EDF280030F200BE
:1001D000F3004708F4004808F5004908F6004A080B
:1001E000F7002C200A30F4007008C0007108C1002C
:1001F0007208C2007308C300740803190629C30CEF
:0E020000C20CC10CC00CC313FF3EFD28080049
:10020E00831203137008F100F0010830FC0071082E
:10021E00F40C03181629FC0B0F29F10100340310FE
:10022E001B29F40C0318F107F10CF00CFC0B182928
:02023E000800B6
:1002400001308312CF008030D000D1010030510640
:10025000031D2C290030500603196329A420A42073
:10026000A420A420632083168512A420A420831236
:1002700050084E05F10000305105F20000307206C2
:10028000031D4429003071060319492983160516F8
:100290004C296D2083160512A420A42085168312F4
:1002A0003210851A5729321C5629572951295008CE
:1002B000F0005108F100F10CF00CF1137008D000BF
:1002C0007108D1002629CF01A420A4206320831621
:1002D0008512A420A4200516A420A420A420A420D4
:1002E000851683123210851A7929321C78297929CA
:1002F0007329CF01A420A420051E7F294F14A42018
:10030000A420A420A420A420A420A420A420A420CD
:10031000A420A420A420A420A420A420A4206320FE
:10032000831685126D208316051283124F08F00084
:020330000800C3
:100332006D2083160512A420A42085168312321084
:10034200851AA729321CA629A729A129A420A420FD
:10035200A420A420A420A420A420A420831605164F
:06036200A420A420080005
:1003680083160516A420A4208516A420A4206D2099
:1003780083160512A420A420632083168512080082
:1003880083124E08003A031DD02905153230D600D5
:10039800D70109200511E7290130CF004F084E0287
:1003A800031CE7290515FA30D600D70109200511E5
:1003B800FA30D600D701092064004F084E06031909
:1003C800E729CF0AD229E830D6000330D700092020
:0203D80008001B
:1003DA008312D0018030D100D20100305206031DB1
:1003EA00F829003051060319172AA420A4208316DD
:1003FA000516A420A420851683123210851A092A0C
:10040A00321C082A092A032A051E0D2A5108D0047B
:10041A00A420A4206320831685128312D20CD10C47
:10042A00D213F22983160516A420A42000308312C1
:10043A004F06031D222A00304E060319272A6D2073
:10044A00831605128316A420A4208516831232105F
:10045A00851A332A321C322A332A2D2AA420A420B0
:10046A00632083168512A420A4206D20831605120A
:08047A0083125008F000080095
:10048200831243083F02031D502A42083E02031D05
:10049200502A41083D02031D502A40083C02031C19
:1004A2005F2A0511F430D6000130D700092006304A
:1004B200D3006430D400D501A620922A43083F021B
:1004C200031D6D2A42083E02031D6D2A41083D02AA
:1004D200031D6D2A40083C02FF3003180030F10072
:1004E20043083702031D7F2A42083602031D7F2A72
:1004F20041083502031D7F2A40083402FF30031CE5
:100502000030F0007108F0050319922AF430D60089
:100512000130D70009200330D3006430D400D50164
:04052200A620080007
:100526008312CD014C084502031D9B2A4B08440249
:10053600031CA52A4B08C402031CC5034C08C502AC
:0C054600CD0A952A4D08CE00C421080003
:1005520083120515B421992101308312D600D701E7
:100562000920B421D0308312CE0020210130CE00E8
:100572002021B421D1308312CE0020210130CE00BF
:10058200CF01ED217008CB004B08B3004B08F000FF
:10059200F00CF013F00CF013F00CF013F00CF0135D
:1005A2000A30F40007210F304B05F1007108700783
:1005B200B8000130CE00CF01ED217008B3003F300A
:1005C2007005CB004B08B3004B08F000F00CF013A1
:1005D200F00CF013F00CF013F00CF0130A30F400EE
:1005E20007210F304B05F10071087007BA00CE01E8
:1005F200CF01ED217008B30007307005B9009921D1
:0E06020001308312D600D7010920051108002F
:100610008312C601673083168F000730831299005A
:10062000123083169F000A3085000F30810095013B
:100630008B1596158312AB01AC01AD01AE014330B1
:10064000A7000B30A800A901AA01A6018316051274
:10065000831205168316851283128516E430BC00BA
:100660000C30BD00BE01BF011030B4000E30B5002B
:10067000B601B701BA30C7001330C800C901CA01BA
:10068000B10105140511C601B0010330B100F43009
:10069000D6000130D70009200330D300FA30D4004F
:1006A000D501A620F430D6000130D7000920C020A3
:1006B00043083F02031D662B42083E02031D662BC2
:1006C00041083D02031D662B40083C0203186B2BBA
:1006D0000510A6016D2B0130A600A101A001A40107
:0606E000A5014122080003
:1006E60008230B1C792B0508A3000B108519C92CB0
:1006F600A2018519802B7514812B751032302202C8
:10070600FF3003180030F100F0017518F00A710887
:10071600F00503199E2B6430D600D7010920A20AE2
:1007260022080A3A031D982B05152208193A031DBB
:100736009D2B05117C2B0A302202FF30031C003052
:10074600F10019302202FF3003180030F000710862
:10075600F0050319E32B0511C0200514D030D6008F
:100766000730D700092043083F02031DC42B420867
:100776003E02031DC42B41083D02031DC42B400845
:100786003C020318C92B0510A601CB2B0130A6008D
:10079600051137084302031DDA2B36084202031DF2
:1007A600DA2B35084102031DDA2B34084002031800
:1007B600DD2B4122A401A501AB01AC01AD01AE01C7
:1007C60019302202FF30031C0030F10032302202C1
:1007D600FF3003180030F0007108F0050319412CB2
:1007E6000511C020E830D6000330D70009204008A4
:1007F600C4004108C500E830CB000330CC0093228A
:100806006430CB00CC0193220A30CB00CC0193227A
:10081600CE01C4214608013A031D412CE830D6001A
:100826000330D70009200230D3006430D400D5014C
:10083600A620A92205156430D600D7010920051186
:10084600E830D6000330D70009203A08C400C501B5
:100856000A30CB00CC0193224408CE00C421E830F4
:10086600D6000330D70009203808C400C5010A3075
:10087600CB00CC0193224408CE00C42132302202A0
:10088600031CC92C05140130BB00043085066430F6
:10089600D600D70109203B08143A0319542CBB0A89
:1008A600482C0511FF30A1002108FF3A031D992CA1
:1008B6000515F430D6000130D70009200511851939
:1008C600922CA2018519692C75146A2C7510323088
:1008D6002202FF3003180030F100F0017518F00A0B
:1008E6007108F00503197D2C6430D600D701092064
:1008F600A20A652C32302202031C912CA101013080
:10090600BB00043085066430D600D70109203B08B9
:10091600143A0319902CBB0A842C0511972CF43039
:10092600D6000130D70009206400572CC0204308A8
:100936003F02031DA82C42083E02031DA82C4108B5
:100946003D02031DA82C40083C020318AD2C0510DF
:10095600A601AF2C0130A60037084302031DBD2CAB
:1009660036084202031DBD2C35084102031DBD2C6D
:10097600340840020318C02C41220D30A400A50102
:10098600AB01AC01AD01AE01AF0164002108003A34
:10099600031D182E00302502031DD32C0D30240212
:1009A600031C112EC02043083F02031DE42C4208FD
:1009B6003E02031DE42C41083D02031DE42C4008C1
:1009C6003C02031CE92C05140130A600370843023B
:1009D600031DF72C36084202031DF72C3508410289
:1009E600031DF72C34084002031CFB2C0510A6013E
:1009F600A401A5014608013A031D042DB101AF0A61
:100A0600062DAF01B0013108003C03185E2D2B08FE
:100A1600F0002C08F1002D08F2002E08F300F00A71
:100A26000319F10A0319F20A0319F30A7008AB0055
:100A36007108AC007208AD007308AE002708F0001C
:100A46002808F1002908F2002A08F3003108F4000A
:100A5600F501F601F7012C2073082E02031D3D2D2A
:100A660072082D02031D3D2D71082C02031D3D2D1C
:100A760070082B02031C5E2D0514D030D6000730FB
:100A8600D700092043083F02031D532D42083E02AA
:100A9600031D532D41083D02031D532D40083C0202
:100AA6000318582D0510A6015A2D0130A600AB01DA
:100AB600AC01AD01AE0114302F02031C112EA92288
:100AC6003008003A031DA72D3A08043A031DA52D48
:100AD6002008003A031DA42D3908013AFF30031DF2
:100AE6000030F1003908043AFF30031D0030F000F1
:100AF6007108F0040319A42D05141030D600273010
:100B0600D700092043083F02031D932D42083E02E9
:100B1600031D932D41083D02031D932D40083C0201
:100B2600FF3003180030F1002608003AFF30031D9D
:100B36000030F0007108F0050319A22D05100130F0
:100B4600A000A62DA001102E07303A02FF30031C8C
:100B56000030F1000D303A02FF3003180030F0008B
:100B66007108F00503190F2E3908013AFF30031DED
:100B76000030F1003908023AFF30031D0030F00062
:100B86007008F1043908033AFF30031D0030F00005
:100B96007008F1043908043AFF30031D0030F000F4
:100BA6007008F1043908053AFF30031D0030F000E3
:100BB6007008F1043908063AFF30031D0030F000D2
:100BC6007008F1043908073AFF30031D0030F000C1
:100BD6007108F00403190E2E43083F02031DFD2D74
:100BE60042083E02031DFD2D41083D02031DFD2D59
:100BF60040083C02FF3003180030F1002608003A96
:100C0600FF30031D0030F0007108F00503190D2EAA
:100C160005100E2E0514102E0514AF01A40A031993
:100C2600A50A6400630000001D2E6430D600D701BB
:080C360009206400742B1E2E3E
:02400E00CC03E1
:00000001FF
