:02000000052CCD
:0C00060007308312FD00FD0B06280800E7
:0400120000000800E2
:1000160001308312F100F20172084A02031D15280D
:1000260071084902031C2E280230FC004330FD00F3
:10003600FD0B1B28FC0B1B28000000006400720847
:100046004A06031D28284908710603192E28F10AB5
:080056000319F20A0F2808004B
:10005E0005308400000800088312F000701170084B
:04006E008000080006
:1000720005308400000800088312F0007010700838
:0400820080000800F2
:1000860001308312B30033084502031C5C28851631
:100096004608C9004708CA000B2085124608C90051
:1000A6004708CA000B203308450603195C28B30A23
:0400B60046280800D0
:1000BA00831203132230FC00F801F901FA01FB0153
:1000CA00FC03031993280310FB0CFA0CF90CF80C27
:1000DA00F30CF20CF10CF00C031C6528FC03031959
:1000EA0085287408F80775080318750FF907760844
:1000FA000318760FFA0777080318770FFB076928A2
:10010A007408F80775080318750FF90776080318B5
:0E011A00760FFA0777080318770FFB07080027
:100128008316051505148312261105189F28261D08
:080138009E289F289928080069
:1001400001308312C6008030C700C8010030480665
:10015000031DAC28003047060319E32809200920B5
:10016000092009203920831605100920092083124F
:1001700047084505F10000304805F20000307206DE
:10018000031DC428003071060319C92883160515FC
:10019000CC282F208316051109200920051483126D
:1001A00026110518D728261DD628D728D128470874
:1001B000F0004808F100F10CF00CF1137008C700D2
:1001C0007108C800A628C601092009203920831615
:1001D00005100920092005150920092009200920FA
:1001E0000514831226110518F928261DF828F92868
:1001F000F328C60109200920051DFF2846140920FF
:1002000009200920092009200920092009200920A6
:100210000920092009200920092009200920392066
:10022000831605102F208316051183124608F0004F
:020230000800C4
:1002320083160515092009200514092009202F20FD
:10024200831605110920092039208316051008009C
:100252002F20831605110920092005148312261167
:1002620005183729261D3629372931290920092061
:1002720009200920092009200920092083160515D3
:060282000920092008001C
:10028800C33083129F05F0309F05BF309F05F030C3
:1002980083169F0483129F174508F000F00D701015
:1002A800F00D701070089F041F1403209F149F1CEA
:1002B8005F2900005B291F101E08F100F00183165A
:1002C8001E0870048312C6007108C7000030C704F6
:0A02D8004608F0004708F100080096
:1002E200831232082C02031D782931082B02031CC9
:1002F20087298512F430C9000130CA000B2006306C
:10030200C5006430C600C7014320AA2932082C0266
:10031200031D8D2931082B02FF3003180030F10034
:1003220032083002031D972931082F02FF30031CC7
:100332000030F0007108F0050319AA29F430C90051
:100342000130CA000B200330C5006430C600C7016B
:04035200432008003C
:100356008312C001C1010130BF000130C500442134
:100366007008C00771080318013EC1070130C900B3
:10037600CA010B203F08403A0319C329BF0AB02916
:100386000630F2004008F0004108F1007208031937
:10039600D129F10CF00CF113FF3ECA290030F2000E
:1003A600F3002D08F4002E08F500F601F7015D2094
:1003B6000A30F8007008F4007108F5007208F600BB
:1003C6007308F70078080319EF29F70CF60CF50CFB
:1003D600F40CF713FF3EE6297408B1007508B20065
:0203E60008000D
:1003E800831203137008F100F0010830FC00710853
:1003F800F40C0318032AFC0BFC29F1010034031048
:10040800082AF40C0318F107F10CF00CFC0B052A70
:020418000800DA
:10041A0083123F08003A031D192A85163230C90093
:10042A00CA010B208512302A0130C00040083F0261
:10043A00031C302A8516FA30C900CA010B2085121E
:10044A00FA30C900CA010B20640040083F060319AC
:10045A00302AC00A1B2AE830C9000330CA000B2020
:02046A00080088
:10046C008312C1018030C200C30100304306031D5A
:10047C00412A003042060319602A092009208316FC
:10048C000515092009200514831226110518522A76
:10049C00261D512A522A4C2A051D562A4208C104EF
:1004AC00092009203920831605108312C30CC20CB5
:1004BC00C3133B2A8316051509200920003083122B
:1004CC004006031D6B2A00303F060319702A2F20AB
:1004DC008316051183160920092005148312261191
:1004EC0005187C2A261D7B2A7C2A762A09200920BD
:1004FC00392083160510092009202F208316051199
:08050C0083124108F000080011
:10051400831285166430C900CA010B20942064300C
:10052400C900CA010B201921D0308312C500A020B4
:10053400C501A020C501A0204408C500A02043088F
:10054400C500A0203F08C500A0204008C500A02089
:100554004108C500A0204208C500A0202921203060
:100564008312C9000330CA000B208512F430C9007D
:080574000130CA000B20080051
:10057C008312BE013D083502031DC62A3C08340215
:10058C00031CD02A3C08B402031CB5033D08B50279
:0C059C00BE0AC02A3E08BF000D22080065
:1005A800831285166430C900CA010B20192129213C
:1005B8000A308312C900CA010B201921D0308312D6
:1005C800C500A0200130C500A0201921D130831218
:1005D800C500A020BF01C00136227008BC00292137
:1005E80083123C08F000F00CF013F00CF013F00C40
:1005F800F013F00CF0130A30F400F4210F303C052E
:10060800F10071087007A0000A30C900CA010B2068
:100618001921D0308312C500A0200230C500A020C7
:100628001921D1308312C500A020BF01C001362294
:100638007008BC0029213F3083123C05BD003D08ED
:10064800BC003D08F000F00CF013F00CF013F00CB7
:10065800F013F00CF0130A30F400F4210F303D05CC
:0C066800F10071087007A1008512080065
:1006740083122612673083168F0007308312990085
:10068400123083169F000A3085000F3081009501D7
:100694008B1596158312B801B901BA01BB01433019
:1006A400B6000B30B700A611E430AB000C30AC0040
:1006B4001030AF000E30B000BA30AD001330AE00D1
:1006C400A70105168512261226100330A700261E40
:1006D400B02B831605100511831205140515A70107
:1006E400A5018519772B7214782B72100F3025020F
:1006F400FF3003180030F100F0017218F00A71089D
:10070400F00503198C2B85166430C900CA010B202F
:10071400A50A732B25080F3A031DAF2B8512013050
:10072400BF003030C0000330C1002630C2000430A6
:10073400C3000530C4008A228512F430C900013098
:10074400CA000B200A30C5006430C600C70143202C
:10075400F430C9000130CA000B20B62B83160514EF
:1007640005158312051005118512F430C9000130F6
:10077400CA000B200330C500FA30C600C70143206D
:10078400F430C9000130CA000B20AB2132082C021E
:10079400031DCE2B31082B020318D32B0512A611EF
:1007A400D42BA615AA01A610A801A901712108003D
:1007B40083120313FB01FA01F9018030F800F10CF4
:1007C400F00C031CEE2B7408F90775080318750F59
:1007D400FA070318FB0A0310F01FF62B7408FA0734
:1007E40075080318750FFB07FB0CFA0CF90CF80CD1
:1007F400031CE12B7B08F3007A08F2007908F1006E
:060804007808F000080076
:10080A003A230B1C0B2C0508A2000B108519372D57
:10081A00A5018519122C7414132C74103230250278
:10082A00FF3003180030F100F0017418F00A710863
:10083A00F0050319302C6430C900CA010B20A50A3F
:10084A0025080A3A031D2A2C85162508193A031D7C
:10085A002F2C85120E2C0A302502FF30031C003083
:10086A00F10019302502FF3003180030F00071083A
:10087A00F0050319642C8512AB210516D030C90086
:10088A000730CA000B2032082C02031D4E2C3108F7
:10089A002B020318532C0512A611542CA6158512E7
:1008AA0030083202031D5B2C2F08310203185E2C1C
:1008BA007121A801A901B801B901BA01BB01193016
:1008CA002502FF30031C0030F10032302502FF30D0
:1008DA0003180030F0007108F0050319C02C8512C6
:1008EA00AB21E830C9000330CA000B203108B4003C
:1008FA003208B500E830BC000330BD00BE226430C7
:10090A00BC00BD01BE220A30BC00BD01BE22BF012F
:10091A000D22261EC02CE830C9000330CA000B2065
:10092A000230C5006430C600C7014320D4228516B0
:10093A006430C900CA010B208512E830C9000330AF
:10094A00CA000B202108B400B5010A30BC00BD0161
:10095A00BE223408BF000D22E830C9000330CA00A5
:10096A000B202008B400B5010A30BC00BD01BE222C
:10097A003408BF000D2232302502031C372D05161C
:10098A000130B300203085066430C900CA010B204B
:10099A003308143A0319D32CB30AC72C8512FF3033
:1009AA00AA002A08FF3A031D182D8516F430C9003B
:1009BA000130CA000B2085128519112DA501851950
:1009CA00E82C7414E92C741032302502FF30031815
:1009DA000030F100F0017418F00A7108F0050319EB
:1009EA00FC2C6430C900CA010B20A50AE42C323061
:1009FA002502031C102DAA010130B3002030850600
:100A0A006430C900CA010B203308143A03190F2DA8
:100A1A00B30A032D8512162DF430C9000130CA001D
:100A2A000B206400D62CAB2132082C02031D1F2D8B
:100A3A0031082B020318242D0512A611252DA615FF
:100A4A0030083202031D2B2D2F08310203182E2DD8
:100A5A0071210D30A800A901B801B901BA01BB0181
:100A6A00A40164002A08003A031D532E003029020B
:100A7A00031D412D0D302802031C4C2EAB213208D8
:100A8A002C02031D4A2D31082B02031C4E2D05167C
:100A9A00A61530083202031D542D2F083102031CFB
:100AAA00582D0512A611A801A901261E5F2DA7011E
:100ABA00A40A612DA40126102708003C0318AA2DB8
:100ACA003808F0003908F1003A08F2003B08F30050
:100ADA00F00A0319F10A0319F20A0319F30A700852
:100AEA00B8007108B9007208BA007308BB0036086A
:100AFA00F0003708F1002708F400F501DA23003086
:100B0A003B02031D922D00303A02031D922D7108FB
:100B1A003902031D922D70083802031CAA2D0516EE
:100B2A00D030C9000730CA000B2032082C02031D3E
:100B3A00A02D31082B020318A52D0512A611A62DEA
:100B4A00A615B801B901BA01BB0114302402031C6D
:100B5A004C2ED4222618E82D2108043A031DE62D2E
:100B6A00A618E52D2308013AFF30031D0030F100D5
:100B7A002308043AFF30031D0030F0007108F00426
:100B8A000319E52D05161030C9002730CA000B20BD
:100B9A0032082C02031DD32D31082B02FF30031813
:100BAA000030F100A619DB2D0314DC2D0310F0012F
:100BBA000318F00A7108F0050319E42D0512A614AA
:100BCA00E72DA6104B2E07302102FF30031C003000
:100BDA00F1000D302102FF3003180030F0007108D7
:100BEA00F00503194A2E2308013AFF30031D00308D
:100BFA00F1002308023AFF30031D0030F0007008AC
:100C0A00F1042308033AFF30031D0030F000700896
:100C1A00F1042308043AFF30031D0030F000700885
:100C2A00F1042308053AFF30031D0030F000700874
:100C3A00F1042308063AFF30031D0030F000700863
:100C4A00F1042308073AFF30031D0030F000710851
:100C5A00F0040319492E32082C02031D362E3108DE
:100C6A002B02FF3003180030F100A6193E2E0314A0
:100C7A003F2E0310F0010318F00A7108F00503195A
:100C8A00482E0512492E05164B2E0516A401A80A50
:100C9A000319A90A640063000000582E6430C900D1
:0A0CAA00CA010B206400062C592E2D
:02400E00C403E9
:00000001FF
