:02000000012CD1
:0C00060007308312FD00FD0B06280800E7
:0400120000000800E2
:1000160001308312F100F20172084B02031D15280C
:1000260071084A02031C2E280230FC004330FD00F2
:10003600FD0B1B28FC0B1B28000000006400720847
:100046004B06031D28284A08710603192E28F10AB3
:080056000319F20A0F2808004B
:10005E0005308400000800088312F000701270084A
:04006E008000080006
:1000720005308400000800088312F000F0127008B6
:0400820080000800F2
:1000860001308312B40034084602031C5C280515AF
:100096004708CA004808CB000B2005114708CA00CC
:1000A6004808CB000B203408460603195C28B40A1E
:0400B60046280800D0
:1000BA00831203132230FC00F801F901FA01FB0153
:1000CA00FC03031993280310FB0CFA0CF90CF80C27
:1000DA00F30CF20CF10CF00C031C6528FC03031959
:1000EA0085287408F80775080318750FF907760844
:1000FA000318760FFA0777080318770FFB076928A2
:10010A007408F80775080318750FF90776080318B5
:0E011A00760FFA0777080318770FFB07080027
:1001280083160516851683122811851A9F28281DFF
:080138009E289F289928080069
:1001400001308312C7008030C800C9010030490661
:10015000031DAC28003048060319E32809200920B4
:1001600009200920392083168512092009208312CD
:1001700048084605F10000304905F20000307206DB
:10018000031DC428003071060319C92883160516FB
:10019000CC282F20831605120920092085168312EA
:1001A0002811851AD728281DD628D728D1284808ED
:1001B000F0004908F100F10CF00CF1137008C800D0
:1001C0007108C900A628C701092009203920831613
:1001D0008512092009200516092009200920092077
:1001E000851683122811851AF928281DF828F92860
:1001F000F328C70109200920051EFF2847140920FC
:1002000009200920092009200920092009200920A6
:100210000920092009200920092009200920392066
:10022000831685122F208316051283124708F000CB
:020230000800C4
:1002320083160516092009208516092009202F207A
:100242008316051209200920392083168512080019
:100252002F208316051209200920851683122811E2
:10026200851A3729281D36293729312909200920DD
:1002720009200920092009200920092083160516D2
:060282000920092008001C
:10028800C33083129F05F0309F05BF309F05F030C3
:1002980083169F0483129F174608F000F00D701014
:1002A800F00D701070089F041F1403209F149F1CEA
:1002B8005F2900005B291F101E08F100F00183165A
:1002C8001E0870048312C7007108C8000030C804F3
:0A02D8004708F0004808F100080094
:1002E200831233082D02031D782932082C02031CC5
:1002F20087290511F430CA000130CB000B200630EB
:10030200C6006430C700C8014320AA2933082D0261
:10031200031D8D2932082C02FF3003180030F10032
:1003220033083102031D972932083002FF30031CC3
:100332000030F0007108F0050319AA29F430CA0050
:100342000130CB000B200330C6006430C700C80167
:04035200432008003C
:100356008312C101C2010130C0000130C600442130
:100366007008C10771080318013EC2070130CA00B0
:10037600CB010B204008403A0319C329C00AB02913
:100386000630F2004108F0004208F1007208031935
:10039600D129F10CF00CF113FF3ECA290030F2000E
:1003A600F3002E08F4002F08F500F601F7015D2092
:1003B6000A30F8007008F4007108F5007208F600BB
:1003C6007308F70078080319EF29F70CF60CF50CFB
:1003D600F40CF713FF3EE6297408B2007508B30063
:0203E60008000D
:1003E800831203137008F100F0010830FC00710853
:1003F800F40C0318032AFC0BFC29F1010034031048
:10040800082AF40C0318F107F10CF00CFC0B052A70
:020418000800DA
:10041A0083124008003A031D192A05153230CA0012
:10042A00CB010B200511302A0130C10041084002DE
:10043A00031C302A0515FA30CA00CB010B2005111E
:10044A00FA30CA00CB010B206400410840060319A8
:10045A00302AC10A1B2AE830CA000330CB000B201D
:02046A00080088
:10046C008312C2018030C300C40100304406031D56
:10047C00412A003043060319602A092009208316FB
:10048C00051609200920851683122811851A522A6F
:10049C00281D512A522A4C2A051E562A4308C204EA
:1004AC00092009203920831685128312C40CC30C31
:1004BC00C4133B2A83160516092009200030831229
:1004CC004106031D6B2A003040060319702A2F20A9
:1004DC00831605128316092009208516831228110C
:1004EC00851A7C2A281D7B2A7C2A762A0920092039
:1004FC00392083168512092009202F208316051216
:08050C0083124208F000080010
:10051400831205156430CA00CB010B20942064308B
:10052400CA00CB010B201921D0308312C600A020B1
:10053400C601A020C601A0204508C600A02044088A
:10054400C600A0204008C600A0204108C600A02084
:100554004208C600A0204308C600A020292120305C
:100564008312CA000330CB000B200511F430CA00FB
:080574000130CB000B20080050
:10057C008312BF013E083602031DC62A3D08350210
:10058C00031CD02A3D08B502031CB6033E08B60274
:0C059C00BF0AC02A3F08C0000D22080062
:1005A80083120515A001A6019630CA00CB010B20C5
:1005B800192129210A308312CA00CB010B201921E5
:1005C800D0308312C600A0200130C600A020192117
:1005D800D1308312C600A0200130C000C1013622EC
:1005E8007008BD003D08A4003D08F000F00CF013B1
:1005F800F00CF013F00CF013F00CF0130A30F400C8
:10060800F4210F303D05F10071087007A600013094
:10061800C000C10136227008A4003F307005BD003B
:100628003D08A4003D08F000F00CF013F00CF013A6
:10063800F00CF013F00CF0130A30F400F4210F3032
:100648003D05F10071087007A000C001C101362204
:100658007008A40007307005A50029210130831215
:0A066800CA00CB010B2005110800A9
:100672008312A811673083168F0007308312990006
:10068200123083169F000A3085000F3081009501D9
:100692008B1596158312B901BA01BB01BC01433017
:1006A200B7000B30B8002812831605128312051604
:1006B2008316851283128516E430AC000C30AD002F
:1006C2001030B0000E30B100BA30AE001330AF00BF
:1006D200A90105140511A81528100330A900A81DA9
:1006E200B22B1430A700A901AB0185197A2B721421
:1006F2007B2B72100F302B02FF3003180030F100F9
:10070200F0017218F00A7108F00503198F2B051514
:100712006430CA00CB010B20AB0A762B2B080F3AB0
:10072200031DB22B05110130C0003030C10003306F
:10073200C2002630C3000430C4000530C5008A223E
:100742000511F430CA000130CB000B200A30C6007C
:100752006430C700C8014320F430CA000130CB0026
:100762000B200511F430CA000130CB000B200330FE
:10077200C600FA30C700C8014320F430CA00013075
:10078200CB000B20AB2133082D02031DCA2B3208EC
:100792002C020318CF2B05102812D02B2816AA01E1
:0A07A200A810A201A30171210800B4
:1007AC0083120313FB01FA01F9018030F800F10CFC
:1007BC00F00C031CEA2B7408F90775080318750F65
:1007CC00FA070318FB0A0310F01FF22B7408FA0740
:1007DC0075080318750FFB07FB0CFA0CF90CF80CD9
:1007EC00031CDD2B7B08F3007A08F2007908F1007A
:0607FC007808F00008007F
:1008020039230B1C072C0508A1000B108519332D69
:10081200AB0185190E2C74140F2C741032302B027C
:10082200FF3003180030F100F0017418F00A71086B
:10083200F00503192C2C6430CA00CB010B20AB0A43
:100842002B080A3A031D262C05152B08193A031DFD
:100852002B2C05110A2C0A302B02FF30031C00300E
:10086200F10019302B02FF3003180030F00071083C
:10087200F0050319602C0511AB210514D030CA0014
:100882000730CB000B2033082D02031D4A2C3208FF
:100892002C0203184F2C05102812502C2816051173
:1008A20031083302031D572C3008320203185A2C28
:1008B2007121A201A301B901BA01BB01BC01193026
:1008C2002B02FF30031C0030F10032302B02FF30CC
:1008D20003180030F0007108F0050319BC2C051153
:1008E200AB21E830CA000330CB000B203208B50040
:1008F2003308B600E830BD000330BE00BE226430CB
:10090200BD00BE01BE220A30BD00BE01BE22C00132
:100912000D22A81DBC2CE830CA000330CB000B20EE
:100922000230C6006430C700C8014320D422051536
:100932006430CA00CB010B200511E830CA00033035
:10094200CB000B202008B500B6010A30BD00BE0165
:10095200BE223508C0000D22E830CA000330CB00A9
:100962000B202608B500B6010A30BD00BE01BE222A
:100972003508C0000D2232302B02031C332D051422
:100982000130B400043085066430CA00CB010B206C
:100992003408143A0319CF2CB40AC32C0511FF30C2
:1009A200AA002A08FF3A031D142D0515F430CA00C7
:1009B2000130CB000B20051185190D2DAB018519D6
:1009C200E42C7414E52C741032302B02FF3003181F
:1009D2000030F100F0017418F00A7108F0050319F3
:1009E200F82C6430CA00CB010B20AB0AE02C323069
:1009F2002B02031C0C2DAA010130B4000430850621
:100A02006430CA00CB010B203408143A03190B2DB1
:100A1200B40AFF2C0511122DF430CA000130CB00AC
:100A22000B206400D22CAB2133082D02031D1B2D99
:100A320032082C020318202D05102812212D281609
:100A420031083302031D272D3008320203182A2DE4
:100A520071210D30A200A301B901BA01BB01BC0191
:100A6200A70164002A08003A031D4F2E003023021A
:100A7200031D3D2D0D302202031C482EAB213308ED
:100A82002D02031D462D32082C02031C4A2D05148B
:100A9200281631083302031D502D30083202031C80
:100AA200542D05102812A201A301A81D5B2DA90136
:100AB200A70A5D2DA70128102908003C0318A62DBE
:100AC2003908F0003A08F1003B08F2003C08F30054
:100AD200F00A0319F10A0319F20A0319F30A70085A
:100AE200B9007108BA007208BB007308BC0037086D
:100AF200F0003808F1002908F400F501D62300308F
:100B02003C02031D8E2D00303B02031D8E2D710809
:100B12003A02031D8E2D70083902031CA62D0514FE
:100B2200D030CA000730CB000B2033082D02031D42
:100B32009C2D32082C020318A12D05102812A22D7B
:100B42002816B901BA01BB01BC0114302702031CEB
:100B5200482ED4222818E42D2008043A031DE22D41
:100B6200A818E12D2508013AFF30031D0030F100DD
:100B72002508043AFF30031D0030F0007108F0042C
:100B82000319E12D05141030CA002730CB000B20C9
:100B920033082D02031DCF2D32082C02FF3003181B
:100BA2000030F100281AD72D0314D82D0310F001BC
:100BB2000318F00A7108F0050319E02D0510A814B6
:100BC200E32DA810472E07302002FF30031C00300F
:100BD200F1000D302002FF3003180030F0007108E0
:100BE200F0050319462E2508013AFF30031D003097
:100BF200F1002508023AFF30031D0030F0007008B2
:100C0200F1042508033AFF30031D0030F00070089C
:100C1200F1042508043AFF30031D0030F00070088B
:100C2200F1042508053AFF30031D0030F00070087A
:100C3200F1042508063AFF30031D0030F000700869
:100C4200F1042508073AFF30031D0030F000710857
:100C5200F0040319452E33082D02031D322E3208EB
:100C62002C02FF3003180030F100281A3A2E031428
:100C72003B2E0310F0010318F00A7108F005031966
:100C8200442E0510452E0514472E0514A701A20A6D
:100C92000319A30A640063000000542E6430CA00E2
:0A0CA200CB010B206400022C552E3C
:02400E00CC03E1
:00000001FF
