:02000000E72BEC
:0C00060007308312FD00FD0B06280800E7
:0400120000000800E2
:1000160001308312F1000030F20072084D02031D18
:10002600162871084C02031C27280230FC004330B6
:10003600FD00FD0B1C28FC0B1C28000000006400C2
:0A004600F10A0319F20A102808005D
:1000500005308400000800088312F0007011700859
:040060008000080014
:1000640005308400000800088312F0007010700846
:040074008000080000
:1000780001308312CA000030CB008030C800C901AB
:100088004808490403197128092009200920092072
:1000980032208316051009200920831248084705D5
:1000A800F00000304905F1007008710403195F2859
:1000B80083160515622828208316051109200920B2
:1000C80005148312251005186D28251C6C286D2829
:1000D8006728C90CC80CC9134428CA01CB010920D8
:1000E800092032208316051009200920051509204A
:1000F80009200920092005148312251005188828CD
:10010800251C872888288228CA01CB0109200920B4
:10011800051D8F284A1409200920092009200920D3
:10012800092009200920092009200920092009207F
:10013800092009200920322083160510282083165B
:0A014800051183124A08F0000800B8
:10015200831203132230FC00F801F901FA01FB01BA
:10016200FC030319DF280310FB0CFA0CF90CF80C42
:10017200F30CF20CF10CF00C031CB128FC03031974
:10018200D1287408F80775080318750FF90776085F
:100192000318760FFA0777080318770FFB07B528BD
:1001A2007408F80775080318750FF907760803181D
:0E01B200760FFA0777080318770FFB0708008F
:1001C00001308312AA002A084702031CF52885166D
:1001D0004808CC004908CD000B2085124808CC0007
:0C01E0004908CD000B20AA0AE328080003
:1001EC00831605150920092005140920092028204B
:1001FC0083160511092009203220831605100800EA
:10020C00C33083129F05F0309F052009F000700861
:10021C009F05F03083169F0483129F174708F00048
:10022C00F00D7010F00D701070089F041F14032057
:10023C009F149F1C232900001F291F101E08F1006A
:0E024C00F00183161E08F0040030F1040800D3
:10025A002820831605110920092005148312251068
:10026A0005183B29251C3A293B293529092009204B
:10027A0009200920092009200920092083160515CB
:06028A0009200920080014
:100290008316051405158312251005185329251CEE
:0802A000522953294D290800E1
:1002A8008312C201C301C401C5010130C100410864
:1002B800403C031C83290130C70006210030F200AE
:1002C800F30083124208F00743080318430FF107AD
:1002D80044080318440FF20745080318450FF307AD
:1002E8007008C2007108C3007208C4007308C50012
:1002F8000130CC000030CD000B20C10A5B2906304C
:10030800F4004208F0004308F1004408F2004508F0
:10031800F300740803199729F30CF20CF10CF00C94
:10032800F313FF3E8E290030F200F3003108F40089
:100338003208F500F601F701A9200A30F800700824
:10034800F4007108F5007208F6007308F7007808E1
:100358000319B529F70CF60CF50CF40CF713FF3E4E
:0C036800AC297408A8007508A900080062
:10037400831229083002031DC12928082F02031CF7
:10038400D1298512F430CC000130CD000B20063089
:10039400C7006430C8000030C900E020ED292908F6
:1003A4003002031DD72928082F020318ED29290834
:1003B4002E02031DDF2928082D02031CED29F43029
:1003C400CC000130CD000B200330C7006430C800DE
:0803D4000030C900E020080020
:1003DC0083124108003A031DFB2985163230CC00EC
:1003EC000030CD000B2085120E2A0130C2004208CD
:1003FC004102031C0E2A8516FA30CC00CD010B20CD
:10040C008512FA30CC00CD010B206400C20AFD2904
:0C041C00E830CC000330CD000B200800BD
:0C04280083123D088A003C088200080096
:10043400831203137008F100F0010830FC00710806
:10044400F40C0318292AFC0B222AF10100340310AE
:100454002E2AF40C0318F107F10CF00CFC0B2B2AD8
:0204640008008E
:100466008312C301C4018030C5000030C6004508B0
:10047600460403195D2A092009208316051509205B
:10048600092005148312251005184D2A251C4C2A0F
:100496004D2A472A051D532A4508C3044608C404A5
:1004A600092009203220831605108312C60CC50CBC
:1004B600C6133A2A83160515092009208312410816
:1004C60042040319692A2820831605118316092078
:1004D60009200514831225100518752A251C742A6F
:1004E600752A6F2A09200920322083160510092053
:1004F600092028208316051183124308F0000800FE
:10050600831285166430CC000030CD000B204821C4
:100516006430CC000030CD000B20F620D0308312A2
:10052600C7003C20C7013C20C7013C204608C70045
:100536003C204508C7003C204108C7003C20420833
:10054600C7003C204308C7003C204408C7003C20A5
:100556002D2120308312CC000330CD000B208512D4
:0C056600F430CC000130CD000B20080068
:100572008312C0013F082C02031DC12A3E082B0230
:10058200031CCB2A3E08AB02031CAC033F08AC029F
:0C059200C00ABB2A4008C100EE2108008E
:10059E0014228A110A128000840ABC0A0319BD0AA9
:0805AE00F003031DCF2A080031
:1005B600831285166430CC000030CD000B20F62067
:1005C6002D210A308312CC000030CD000B20F620FE
:1005D600D0308312C7003C200130C7003C20F620F3
:1005E600D1308312C7003C20C101C20133227008FA
:1005F600BE002D2183123E08F000F00CF013F00C23
:10060600F013F00CF013F00CF0130A30F4001A2279
:100616000F303E05F10071087007B3000A30CC00B8
:100626000030CD000B20F620D0308312C7003C20CE
:100636000230C7003C20F620D1308312C7003C2090
:10064600C101C20133227008BE002D213F30831242
:100656003E05BF003F08BE003F08F000F00CF01357
:10066600F00CF013F00CF013F00CF0130A30F40059
:100676001A220F303F05F10071087007B400851289
:0206860008006A
:100688008312A510673083168F00073083129900F4
:10069800123083169F000A3085000F3081009501C3
:1006A8008B1596158312A101A201A301A401433061
:1006B800A6000B30A700A51125152516A514A5120F
:1006C8000330B900E430AF000C30B0001030AD009A
:1006D8000E30AE009230B1001330B200B901251EC1
:1006E800762B251125197A2B05127B2B05168512D9
:1006F800A51CB92B831605100511831205140515C1
:10070800B901B8018519942B0F3038020318942BBE
:1007180085166430CC000030CD000B20B80A862B3B
:1007280038080F3A031DB82B85120630C100043073
:10073800C2000430C3002630C4002030C500553044
:10074800C60083228512F430CC000130CD000B2086
:100758000A30C7006430C8000030C900E020F43017
:10076800CC000130CD000B20BF2B831605140515D6
:100778008312051005118512F430CC000130CD002C
:100788000B200330C700FA30C800C901E020F4305C
:10079800CC000130CD000B20542129083002031D64
:1007A800D72B28082F020318E02B2519DD2B051657
:1007B800DE2B0512A511E12BA515A5132513BA01EA
:0607C800BB01BA2108008C
:1007CE00042644230B1CEE2B0508B5000B108519CF
:1007DE000A2DB8018519082C323038020318082C5E
:1007EE006430CC000030CD000B20B80A38080A3A2D
:1007FE00031D022C85163808193A031D072C851285
:10080E00F12B0A303802031C3C2C19303802031825
:10081E003C2C851254212519162C0512172C051661
:10082E00D030CC000730CD000B2029083002031D3C
:10083E00222C28082F0203182B2C2519282C0516DC
:10084E00292C0512A5112C2CA51585122E0829026E
:10085E00031D332C2D0828020318362CBA21BA0199
:10086E00BB01A101A201A301A40119303802031C8E
:10087E00962C323038020318962C85125421E8300B
:10088E00CC000330CD000B202808AB002908AC00AB
:10089E00E830BE000330BF00B9226430BE00003025
:1008AE00BF00B9220A30BE000030BF00B922C1011C
:1008BE00EE21A51C962CE830CC000330CD000B2089
:1008CE000230C7006430C8000030C900E020DB22CF
:1008DE0085166430CC000030CD000B208512E83038
:1008EE00CC000330CD000B203408AB00AC010A3035
:1008FE00BE000030BF00B9222B08C100EE21E83047
:10090E00CC000330CD000B203308AB00AC010A3015
:10091E00BE000030BF00B9222B08C100EE213230DC
:10092E003802031C0A2D25199E2C05129F2C051624
:10093E000130AA002A08143C031CAE2C2030850678
:10094E006430CC000030CD000B20AA0AA12C8512F9
:10095E00A517A51FE62C8516F430CC000130CD006E
:10096E000B2085128519DF2CB8018519C92C323060
:10097E0038020318C92C6430CC000030CD000B2097
:10098E00B80ABC2C32303802031CDE2CA513013001
:10099E00AA002A08143C031CDD2C20308506643086
:1009AE00CC000030CD000B20AA0AD02C8512E42CEE
:1009BE00F430CC000130CD000B206400B02C54215B
:1009CE0029083002031DED2C28082F020318F62CDF
:1009DE002519F32C0516F42C0512A511F72CA515C7
:1009EE002E082902031DFD2C2D0828020318002DA8
:1009FE00BA210D30BA000030BB00A101A201A30143
:100A0E00A401B7016400A51BF52D00303B02031DA8
:100A1E00122D0D303A02031CEE2D542129083002FE
:100A2E00031D1B2D28082F02031C232D2519212DF4
:100A3E000512222D0516A5152E082902031D292D96
:100A4E002D082802031C312D25192F2D0516302DAA
:100A5E000512A511BA01BB01A51C382DB901B70AA3
:100A6E003A2DB701A5123908003C03188F2D210825
:100A7E00F0002208F1002308F2002408F300F00A27
:100A8E000319F10A0319F20A0319F30A7008A100F7
:100A9E007108A2007208A3007308A4002608F000D3
:100AAE002708F100F201F3013908F400F501F6010F
:100ABE00F701A92073082402031D6F2D720823026B
:100ACE00031D6F2D71082202031D6F2D7008210268
:100ADE00031C8F2D2519752D0512762D0516D03078
:100AEE00CC000730CD000B2029083002031D812DCC
:100AFE0028082F0203188A2D2519872D0516882DF3
:100B0E000512A5118B2DA515A101A201A301A4010A
:100B1E0014303702031CEE2DDB22A51AC22D340829
:100B2E00043A031DC02D251BBF2D3608013A0319AB
:100B3E00A52D3608043A0319A52DBF2D2519A92D6B
:100B4E000512AA2D05161030CC002730CD000B2033
:100B5E0029083002031DB52D28082F020318BE2DBB
:100B6E00A519BE2D2519BD2D0516BE2D051225174D
:100B7E00C12D2513ED2D07303402031CE82D0D3049
:100B8E0034020318E82D01303602031CE72D360817
:100B9E00073C031CE72D29083002031DD82D280819
:100BAE002F020318E22DA519E22D2519E02D0516A9
:100BBE00E12D0512E72D2519E62D0512E72D051657
:100BCE00ED2D2519EC2D0512ED2D0516B701BA0ADE
:100BDE000319BB0A640063000000FB2D6430CC00D7
:0C0BEE000030CD000B206400E92BFC2D32
:100C08002030840001308312F0000230BC0006302E
:060C1800BD00CF22080020
:020C040040347A
:02400E00CC03E1
:00000001FF
