:02000000202CB2
:0C00060007308312FD00FD0B06280800E7
:0400120000000800E2
:1000160001308312F100F20172084C02031D15280B
:1000260071084B02031C2E280230FC004330FD00F1
:10003600FD0B1B28FC0B1B28000000006400720847
:100046004C06031D28284B08710603192E28F10AB1
:080056000319F20A0F2808004B
:10005E0005308400000800088312F000701170084B
:04006E008000080006
:1000720005308400000800088312F0007010700838
:0400820080000800F2
:1000860001308312B50035084702031C5C2885162B
:100096004808CB004908CC000B2085124808CB0045
:1000A6004908CC000B203508470603195C28B50A19
:0400B60046280800D0
:1000BA00831203132230FC00F801F901FA01FB0153
:1000CA00FC03031993280310FB0CFA0CF90CF80C27
:1000DA00F30CF20CF10CF00C031C6528FC03031959
:1000EA0085287408F80775080318750FF907760844
:1000FA000318760FFA0777080318770FFB076928A2
:10010A007408F80775080318750FF90776080318B5
:0E011A00760FFA0777080318770FFB07080027
:100128008316051505148312281105189F28281D04
:080138009E289F289928080069
:1001400001308312C8008030C900CA0100304A065D
:10015000031DAC28003049060319E32809200920B3
:10016000092009203920831605100920092083124F
:1001700049084705F10000304A05F20000307206D8
:10018000031DC428003071060319C92883160515FC
:10019000CC282F208316051109200920051483126D
:1001A00028110518D728281DD628D728D12849086E
:1001B000F0004A08F100F10CF00CF1137008C900CE
:1001C0007108CA00A628C801092009203920831611
:1001D00005100920092005150920092009200920FA
:1001E0000514831228110518F928281DF828F92864
:1001F000F328C80109200920051DFF2848140920FB
:1002000009200920092009200920092009200920A6
:100210000920092009200920092009200920392066
:10022000831605102F208316051183124808F0004D
:020230000800C4
:1002320083160515092009200514092009202F20FD
:10024200831605110920092039208316051008009C
:100252002F20831605110920092005148312281165
:1002620005183729281D362937293129092009205F
:1002720009200920092009200920092083160515D3
:060282000920092008001C
:10028800C33083129F05F0309F05BF309F05F030C3
:1002980083169F0483129F174708F000F00D701013
:1002A800F00D701070089F041F1403209F149F1CEA
:1002B8005F2900005B291F101E08F100F00183165A
:1002C8001E0870048312C8007108C9000030C904F0
:0A02D8004808F0004908F100080092
:1002E200831234082E02031D782933082D02031CC1
:1002F20087298512F430CB000130CC000B20053069
:10030200C7006430C800C9014320B62934082E0250
:10031200031D8D2933082D02FF3003180030F10030
:1003220034083202031D972933083102FF30031CBF
:100332000030F0007108F0050319AB29F430CB004E
:100342000130CC000B200330C7006430C800C90163
:100352004320B629F430CB000130CC000B20013011
:0C036200C7006430C800C9014320080037
:10036E008312C201C3010130C1000130C700442114
:10037E007008C20771080318013EC3070130CB0095
:10038E00CC010B204108403A0319CF29C10ABC29E0
:10039E000630F2004208F0004308F100720803191B
:1003AE00DD29F10CF00CF113FF3ED6290030F200DE
:1003BE00F3002F08F4003008F500F601F7015D2078
:1003CE000A30F8007008F4007108F5007208F600A3
:1003DE007308F70078080319FB29F70CF60CF50CD7
:1003EE00F40CF713FF3EF2297408B3007508B4003D
:0203FE000800F5
:10040000831203137008F100F0010830FC0071083A
:10041000F40C03180F2AFC0B082AF1010034031016
:10042000142AF40C0318F107F10CF00CFC0B112A40
:020430000800C2
:1004320083124108003A031D252A85163230CB006B
:10044200CC010B2085123C2A0130C2004208410235
:10045200031C3C2A8516FA30CB00CC010B208512F6
:10046200FA30CB00CC010B2064004208410603198C
:100472003C2AC20A272AE830CB000330CC000B20EA
:02048200080070
:100484008312C3018030C400C50100304506031D3A
:100494004D2A0030440603196C2A092009208316CA
:1004A40005150920092005148312281105185E2A50
:1004B400281D5D2A5E2A582A051D622A4408C304A1
:1004C400092009203920831605108312C50CC40C99
:1004D400C513472A83160515092009200030831205
:1004E4004206031D772A0030410603197C2A2F2077
:1004F4008316051183160920092005148312281177
:100504000518882A281D872A882A822A0920092072
:10051400392083160510092009202F208316051180
:0805240083124308F0000800F7
:10052C00831285166430CB00CC010B2094206430F0
:10053C00CB00CC010B201921D0308312C700A02096
:10054C00C701A020C701A0204608C700A02045086D
:10055C00C700A0204108C700A0204208C700A02067
:10056C004308C700A0204408C700A0202921203040
:10057C008312CB000330CC000B208512F430CB005F
:08058C000130CC000B20080037
:100594008312C0013F083702031DD22A3E083602E7
:1005A400031CDC2A3E08B602031CB7033F08B7024B
:0C05B400C00ACC2A4008C100192208002F
:1005C000831285166430CB00CC010B201921292120
:1005D0000A308312CB00CC010B201921D0308312BA
:1005E000C700A0200130C700A0201921D1308312FC
:1005F000C700A020C101C20142227008BE0029210B
:1006000083123E08F000F00CF013F00CF013F00C25
:10061000F013F00CF0130A30F40000220F303E0506
:10062000F10071087007A6000A30CB00CC010B2046
:100630001921D0308312C700A0200230C700A020AB
:100640001921D1308312C700A020C101C20142226A
:100650007008BE0029213F3083123E05BF003F08CD
:10066000BE003F08F000F00CF013F00CF013F00C9B
:10067000F013F00CF0130A30F40000220F303F05A5
:0C068000F10071087007A000851208004E
:10068C008312A811673083168F00073083129900EC
:10069C00123083169F000A3085000F3081009501BF
:1006AC008B1596158312BA01BB01BC01BD014330F9
:1006BC00B8000B30B90028120130AC00FF30A90093
:1006CC00A81528100330A700E430AD000C30AE00A4
:1006DC001030B1000E30B2009230AF001330B000C9
:1006EC00A701AC012C187C2B05127D2B051685124D
:1006FC00A81DC52B831605100511831205140515AD
:10070C00A701AB0185198C2B72148D2B72100F3035
:10071C002B02FF3003180030F100F0017218F00AC0
:10072C007108F0050319A12B85166430CB00CC01A0
:10073C000B20AB0A882B2B080F3A031DC42B8512F8
:10074C000630C1000430C2000430C3002630C4009F
:10075C002030C5005530C60096228512F430CB00EF
:10076C000130CC000B200A30C7006430C800C9012E
:10077C004320F430CB000130CC000B20CB2B831664
:10078C00051405158312051005118512F430CB00E4
:10079C000130CC000B200330C700FA30C800C9016F
:1007AC004320F430CB000130CC000B20B7213408AF
:1007BC002E02031DE32B33082D020318EE2B2C09FC
:1007CC00F0007018EB2B0512EC2B05162812EF2BF2
:0E07DC002816AA01A810A201A301712108008D
:1007EA0083120313FB01FA01F9018030F800F10CBE
:1007FA00F00C031C092C7408F90775080318750F07
:10080A00FA070318FB0A0310F01F112C7408FA07E1
:10081A0075080318750FFB07FB0CFA0CF90CF80C9A
:10082A00031CFC2B7B08F3007A08F2007908F1001C
:06083A007808F000080040
:1008400046230B1C262C0508A1000B108519562DDC
:10085000AB0185192D2C74142E2C741032302B0200
:10086000FF3003180030F100F0017418F00A71082D
:10087000F00503194B2C6430CB00CC010B20AB0AE4
:100880002B080A3A031D452C85162B08193A031D1F
:100890004A2C8512292C0A302B02FF30031C003011
:1008A000F10019302B02FF3003180030F0007108FE
:1008B000F0050319812C8512B7212C18612C051223
:1008C000622C0516D030CB000730CC000B2034084A
:1008D0002E02031D6D2C33082D020318782C2C09D1
:1008E000F0007018752C0512762C05162812792C3C
:1008F000281685127121A201A301BA01BB01BC0116
:10090000BD0119302B02FF30031C0030F1003230E2
:100910002B02FF3003180030F0007108F0050319B6
:10092000DD2C8512B721E830CB000330CC000B2042
:100930003308B6003408B700E830BE000330BF000B
:10094000CA226430BE00BF01CA220A30BE00BF0105
:10095000CA22C1011922A81DDD2CE830CB000330CA
:10096000CC000B200230C7006430C800C90143200E
:10097000E02285166430CB00CC010B208512E830D4
:10098000CB000330CC000B202008B600B7010A30A2
:10099000BE00BF01CA223608C1001922E830CB00D0
:1009A0000330CC000B202608B600B7010A30BE0089
:1009B000BF01CA223608C100192232302B02031CA3
:1009C000562D2C18E52C0512E62C05160130B50025
:1009D000203085066430CB00CC010B203508143A5A
:1009E0000319F42CB50AE82C8512FF30AA002A0856
:1009F000FF3A031D392D8516F430CB000130CC00B1
:100A00000B2085128519322DAB018519092D74141F
:100A10000A2D741032302B02FF3003180030F10021
:100A2000F0017418F00A7108F00503191D2D6430E7
:100A3000CB00CC010B20AB0A052D32302B02031C5E
:100A4000312DAA010130B500203085066430CB007D
:100A5000CC010B203508143A0319302DB50A242D8A
:100A60008512372DF430CB000130CC000B20640010
:100A7000F72CB72134082E02031D402D33082D0218
:100A800003184B2D2C09F0007018482D0512492D24
:100A9000051628124C2D281671210D30A200A30135
:100AA000BA01BB01BC01BD01A50164002A08003ADE
:100AB000031D9E2E00302302031D602D0D302202E7
:100AC000031C972EB72134082E02031D692D33080D
:100AD0002D02031C712D2C186F2D0512702D05167B
:100AE000281632083402031D772D31083302031C07
:100AF000812D2C09F00070187F2D0512802D051610
:100B00002812A201A301A81D882DA701A50A8A2DDC
:100B1000A50128102708003C0318DD2D3A08F00035
:100B20003B08F1003C08F2003D08F300F00A03190D
:100B3000F10A0319F20A0319F30A7008BA007108DE
:100B4000BB007208BC007308BD003808F00039080B
:100B5000F1002708F400F501F52300303D02031DE4
:100B6000BB2D00303C02031DBB2D71083B02031D51
:100B7000BB2D70083A02031CDD2D2C18C12D051267
:100B8000C22D0516D030CB000730CC000B20340826
:100B90002E02031DCD2D33082D020318D82D2C094C
:100BA000F0007018D52D0512D62D05162812D92D56
:100BB0002816BA01BB01BC01BD0114302502031C7B
:100BC000972EE0222818252E2008043A031D232EF4
:100BD000A818222E2408013AFF30031D0030F1002E
:100BE0002408043AFF30031D0030F0007108F004BF
:100BF0000319222E2C18FE2D0512FF2D051610307C
:100C0000CB002730CC000B2034082E02031D0A2E07
:100C100033082D02FF3003180030F100281A122E7D
:100C20000314132E0310F0010318F00A7108F005E5
:100C30000319212E2C09F0007018202E0512212EE8
:100C40000516A814242EA810962E07302002FF3077
:100C5000031C0030F1000D302002FF30031800307B
:100C6000F0007108F0050319912E2408013AFF30B5
:100C7000031D0030F1002408023AFF30031D00304C
:100C8000F0007008F1042408033AFF30031D00301F
:100C9000F0007008F1042408043AFF30031D00300E
:100CA000F0007008F1042408053AFF30031D0030FD
:100CB000F0007008F1042408063AFF30031D0030EC
:100CC000F0007008F1042408073AFF30031D0030DB
:100CD000F0007108F0040319902E34082E02031D51
:100CE000732E33082D02FF3003180030F100281A4C
:100CF0007B2E03147C2E0310F0010318F00A7108F8
:100D0000F00503198B2E2C09F0007018892E05129E
:100D10008A2E0516902E2C188F2E0512902E051651
:100D2000962E2C18952E0512962E0516A501A20AB0
:100D30000319A30A640063000000A32E6430CB00F3
:0A0D4000CC010B206400212CA42E2E
:02400E00CC03E1
:00000001FF
